{
  "contractName": "CryptoKids",
  "abi": [
    {
      "inputs": [],
      "stateMutability": "nonpayable",
      "type": "constructor"
    },
    {
      "anonymous": false,
      "inputs": [
        {
          "indexed": false,
          "internalType": "address",
          "name": "addr",
          "type": "address"
        },
        {
          "indexed": false,
          "internalType": "uint256",
          "name": "amount",
          "type": "uint256"
        },
        {
          "indexed": false,
          "internalType": "uint256",
          "name": "contractBalance",
          "type": "uint256"
        }
      ],
      "name": "LogCampaignFundingReceived",
      "type": "event"
    },
    {
      "inputs": [
        {
          "internalType": "uint256",
          "name": "",
          "type": "uint256"
        }
      ],
      "name": "campaigns",
      "outputs": [
        {
          "internalType": "address payable",
          "name": "walletAddress",
          "type": "address"
        },
        {
          "internalType": "string",
          "name": "charityName",
          "type": "string"
        },
        {
          "internalType": "string",
          "name": "title",
          "type": "string"
        },
        {
          "internalType": "string",
          "name": "desc",
          "type": "string"
        },
        {
          "internalType": "uint256",
          "name": "releaseTime",
          "type": "uint256"
        },
        {
          "internalType": "uint256",
          "name": "target",
          "type": "uint256"
        },
        {
          "internalType": "uint256",
          "name": "amount",
          "type": "uint256"
        },
        {
          "internalType": "bool",
          "name": "canWithdraw",
          "type": "bool"
        },
        {
          "internalType": "string",
          "name": "donators",
          "type": "string"
        }
      ],
      "stateMutability": "view",
      "type": "function",
      "constant": true
    },
    {
      "inputs": [
        {
          "internalType": "address payable",
          "name": "walletAddress",
          "type": "address"
        },
        {
          "internalType": "string",
          "name": "charityName",
          "type": "string"
        },
        {
          "internalType": "string",
          "name": "title",
          "type": "string"
        },
        {
          "internalType": "string",
          "name": "desc",
          "type": "string"
        },
        {
          "internalType": "uint256",
          "name": "releaseTime",
          "type": "uint256"
        },
        {
          "internalType": "uint256",
          "name": "target",
          "type": "uint256"
        },
        {
          "internalType": "uint256",
          "name": "amount",
          "type": "uint256"
        },
        {
          "internalType": "bool",
          "name": "canWithdraw",
          "type": "bool"
        },
        {
          "internalType": "string",
          "name": "donators",
          "type": "string"
        }
      ],
      "name": "addCampaign",
      "outputs": [],
      "stateMutability": "nonpayable",
      "type": "function"
    },
    {
      "inputs": [],
      "name": "getMembers",
      "outputs": [
        {
          "components": [
            {
              "internalType": "address payable",
              "name": "walletAddress",
              "type": "address"
            },
            {
              "internalType": "string",
              "name": "charityName",
              "type": "string"
            },
            {
              "internalType": "string",
              "name": "title",
              "type": "string"
            },
            {
              "internalType": "string",
              "name": "desc",
              "type": "string"
            },
            {
              "internalType": "uint256",
              "name": "releaseTime",
              "type": "uint256"
            },
            {
              "internalType": "uint256",
              "name": "target",
              "type": "uint256"
            },
            {
              "internalType": "uint256",
              "name": "amount",
              "type": "uint256"
            },
            {
              "internalType": "bool",
              "name": "canWithdraw",
              "type": "bool"
            },
            {
              "internalType": "string",
              "name": "donators",
              "type": "string"
            }
          ],
          "internalType": "struct CryptoKids.Campaign[]",
          "name": "",
          "type": "tuple[]"
        }
      ],
      "stateMutability": "view",
      "type": "function",
      "constant": true
    },
    {
      "inputs": [],
      "name": "balanceOf",
      "outputs": [
        {
          "internalType": "uint256",
          "name": "",
          "type": "uint256"
        }
      ],
      "stateMutability": "view",
      "type": "function",
      "constant": true
    },
    {
      "inputs": [
        {
          "internalType": "address",
          "name": "walletAddress",
          "type": "address"
        },
        {
          "internalType": "address",
          "name": "donators",
          "type": "address"
        }
      ],
      "name": "deposit",
      "outputs": [],
      "stateMutability": "payable",
      "type": "function",
      "payable": true
    },
    {
      "inputs": [],
      "name": "getDonators",
      "outputs": [
        {
          "internalType": "address[]",
          "name": "",
          "type": "address[]"
        }
      ],
      "stateMutability": "view",
      "type": "function",
      "constant": true
    },
    {
      "inputs": [
        {
          "internalType": "address",
          "name": "walletAddress",
          "type": "address"
        }
      ],
      "name": "availableToWithdraw",
      "outputs": [
        {
          "internalType": "bool",
          "name": "",
          "type": "bool"
        }
      ],
      "stateMutability": "nonpayable",
      "type": "function"
    },
    {
      "inputs": [
        {
          "internalType": "address payable",
          "name": "walletAddress",
          "type": "address"
        }
      ],
      "name": "withdraw",
      "outputs": [],
      "stateMutability": "payable",
      "type": "function",
      "payable": true
    }
  ],
  "bytecode": "0x608060405234801561001057600080fd5b50336000806101000a81548173ffffffffffffffffffffffffffffffffffffffff021916908373ffffffffffffffffffffffffffffffffffffffff160217905550612056806100606000396000f3fe60806040526004361061007b5760003560e01c8063a25db8ce1161004e578063a25db8ce14610137578063a3ae411114610174578063bf1482fa1461019d578063f9609f08146101c85761007b565b8063141961bc1461008057806351cff8d9146100c5578063722713f7146100e15780639eab52531461010c575b600080fd5b34801561008c57600080fd5b506100a760048036038101906100a2919061116b565b6101e4565b6040516100bc99989796959493929190611293565b60405180910390f35b6100df60048036038101906100da9190611368565b61048f565b005b3480156100ed57600080fd5b506100f6610686565b6040516101039190611395565b60405180910390f35b34801561011857600080fd5b5061012161068e565b60405161012e91906115c3565b60405180910390f35b34801561014357600080fd5b5061015e60048036038101906101599190611623565b610afc565b60405161016b9190611650565b60405180910390f35b34801561018057600080fd5b5061019b600480360381019061019691906117cc565b610bf0565b005b3480156101a957600080fd5b506101b2610dec565b6040516101bf91906119c4565b60405180910390f35b6101e260048036038101906101dd91906119e6565b610e7a565b005b600181815481106101f457600080fd5b90600052602060002090600902016000915090508060000160009054906101000a900473ffffffffffffffffffffffffffffffffffffffff169080600101805461023d90611a55565b80601f016020809104026020016040519081016040528092919081815260200182805461026990611a55565b80156102b65780601f1061028b576101008083540402835291602001916102b6565b820191906000526020600020905b81548152906001019060200180831161029957829003601f168201915b5050505050908060020180546102cb90611a55565b80601f01602080910402602001604051908101604052809291908181526020018280546102f790611a55565b80156103445780601f1061031957610100808354040283529160200191610344565b820191906000526020600020905b81548152906001019060200180831161032757829003601f168201915b50505050509080600301805461035990611a55565b80601f016020809104026020016040519081016040528092919081815260200182805461038590611a55565b80156103d25780601f106103a7576101008083540402835291602001916103d2565b820191906000526020600020905b8154815290600101906020018083116103b557829003601f168201915b5050505050908060040154908060050154908060060154908060070160009054906101000a900460ff169080600801805461040c90611a55565b80601f016020809104026020016040519081016040528092919081815260200182805461043890611a55565b80156104855780601f1061045a57610100808354040283529160200191610485565b820191906000526020600020905b81548152906001019060200180831161046857829003601f168201915b5050505050905089565b600061049a82610eea565b9050600181815481106104b0576104af611a86565b5b906000526020600020906009020160000160009054906101000a900473ffffffffffffffffffffffffffffffffffffffff1673ffffffffffffffffffffffffffffffffffffffff163373ffffffffffffffffffffffffffffffffffffffff161461054f576040517f08c379a000000000000000000000000000000000000000000000000000000000815260040161054690611b27565b60405180910390fd5b600115156001828154811061056757610566611a86565b5b906000526020600020906009020160070160009054906101000a900460ff161515146105c8576040517f08c379a00000000000000000000000000000000000000000000000000000000081526004016105bf90611bb9565b60405180910390fd5b600181815481106105dc576105db611a86565b5b906000526020600020906009020160000160009054906101000a900473ffffffffffffffffffffffffffffffffffffffff1673ffffffffffffffffffffffffffffffffffffffff166108fc6001838154811061063b5761063a611a86565b5b9060005260206000209060090201600601549081150290604051600060405180830381858888f19350505050158015610678573d6000803e3d6000fd5b5061068161068e565b505050565b600047905090565b6060600060018054905067ffffffffffffffff8111156106b1576106b0611675565b5b6040519080825280602002602001820160405280156106ea57816020015b6106d76110bd565b8152602001906001900390816106cf5790505b5090506000805b600180549050811015610a42576001818154811061071257610711611a86565b5b9060005260206000209060090201604051806101200160405290816000820160009054906101000a900473ffffffffffffffffffffffffffffffffffffffff1673ffffffffffffffffffffffffffffffffffffffff1673ffffffffffffffffffffffffffffffffffffffff16815260200160018201805461079290611a55565b80601f01602080910402602001604051908101604052809291908181526020018280546107be90611a55565b801561080b5780601f106107e05761010080835404028352916020019161080b565b820191906000526020600020905b8154815290600101906020018083116107ee57829003601f168201915b5050505050815260200160028201805461082490611a55565b80601f016020809104026020016040519081016040528092919081815260200182805461085090611a55565b801561089d5780601f106108725761010080835404028352916020019161089d565b820191906000526020600020905b81548152906001019060200180831161088057829003601f168201915b505050505081526020016003820180546108b690611a55565b80601f01602080910402602001604051908101604052809291908181526020018280546108e290611a55565b801561092f5780601f106109045761010080835404028352916020019161092f565b820191906000526020600020905b81548152906001019060200180831161091257829003601f168201915b505050505081526020016004820154815260200160058201548152602001600682015481526020016007820160009054906101000a900460ff1615151515815260200160088201805461098190611a55565b80601f01602080910402602001604051908101604052809291908181526020018280546109ad90611a55565b80156109fa5780601f106109cf576101008083540402835291602001916109fa565b820191906000526020600020905b8154815290600101906020018083116109dd57829003601f168201915b505050505081525050838381518110610a1657610a15611a86565b5b60200260200101819052508180610a2c90611c08565b9250508080610a3a90611c08565b9150506106f1565b5060008167ffffffffffffffff811115610a5f57610a5e611675565b5b604051908082528060200260200182016040528015610a9857816020015b610a856110bd565b815260200190600190039081610a7d5790505b50905060005b82811015610af257838181518110610ab957610ab8611a86565b5b6020026020010151828281518110610ad457610ad3611a86565b5b60200260200101819052508080610aea90611c08565b915050610a9e565b5080935050505090565b600080610b0883610eea565b905060018181548110610b1e57610b1d611a86565b5b9060005260206000209060090201600401544211610b71576040517f08c379a0000000000000000000000000000000000000000000000000000000008152600401610b6890611c9c565b60405180910390fd5b60018181548110610b8557610b84611a86565b5b906000526020600020906009020160040154421115610be5576001808281548110610bb357610bb2611a86565b5b906000526020600020906009020160070160006101000a81548160ff0219169083151502179055506001915050610beb565b60009150505b919050565b60008054906101000a900473ffffffffffffffffffffffffffffffffffffffff1673ffffffffffffffffffffffffffffffffffffffff163373ffffffffffffffffffffffffffffffffffffffff1614610c7e576040517f08c379a0000000000000000000000000000000000000000000000000000000008152600401610c7590611d08565b60405180910390fd5b60016040518061012001604052808b73ffffffffffffffffffffffffffffffffffffffff1681526020018a8152602001898152602001888152602001878152602001868152602001858152602001841515815260200183815250908060018154018082558091505060019003906000526020600020906009020160009091909190915060008201518160000160006101000a81548173ffffffffffffffffffffffffffffffffffffffff021916908373ffffffffffffffffffffffffffffffffffffffff1602179055506020820151816001019081610d5d9190611ed4565b506040820151816002019081610d739190611ed4565b506060820151816003019081610d899190611ed4565b506080820151816004015560a0820151816005015560c0820151816006015560e08201518160070160006101000a81548160ff021916908315150217905550610100820151816008019081610dde9190611ed4565b505050505050505050505050565b60606002805480602002602001604051908101604052809291908181526020018280548015610e7057602002820191906000526020600020905b8160009054906101000a900473ffffffffffffffffffffffffffffffffffffffff1673ffffffffffffffffffffffffffffffffffffffff1681526020019060010190808311610e26575b5050505050905090565b6002819080600181540180825580915050600190039060005260206000200160009091909190916101000a81548173ffffffffffffffffffffffffffffffffffffffff021916908373ffffffffffffffffffffffffffffffffffffffff160217905550610ee682610f9f565b5050565b600080600090505b600180549050811015610f93578273ffffffffffffffffffffffffffffffffffffffff1660018281548110610f2a57610f29611a86565b5b906000526020600020906009020160000160009054906101000a900473ffffffffffffffffffffffffffffffffffffffff1673ffffffffffffffffffffffffffffffffffffffff1603610f805780915050610f9a565b8080610f8b90611c08565b915050610ef2565b506103e790505b919050565b60005b6001805490508110156110b9578173ffffffffffffffffffffffffffffffffffffffff1660018281548110610fda57610fd9611a86565b5b906000526020600020906009020160000160009054906101000a900473ffffffffffffffffffffffffffffffffffffffff1673ffffffffffffffffffffffffffffffffffffffff16036110a657346001828154811061103c5761103b611a86565b5b9060005260206000209060090201600601600082825461105c9190611fa6565b925050819055507f108f3f8c139efd747a16652fefbfd2740fa1f1504bf3d45d2701e498296db507823461108e610686565b60405161109d93929190611fe9565b60405180910390a15b80806110b190611c08565b915050610fa2565b5050565b604051806101200160405280600073ffffffffffffffffffffffffffffffffffffffff168152602001606081526020016060815260200160608152602001600081526020016000815260200160008152602001600015158152602001606081525090565b6000604051905090565b600080fd5b600080fd5b6000819050919050565b61114881611135565b811461115357600080fd5b50565b6000813590506111658161113f565b92915050565b6000602082840312156111815761118061112b565b5b600061118f84828501611156565b91505092915050565b600073ffffffffffffffffffffffffffffffffffffffff82169050919050565b60006111c382611198565b9050919050565b6111d3816111b8565b82525050565b600081519050919050565b600082825260208201905092915050565b60005b838110156112135780820151818401526020810190506111f8565b60008484015250505050565b6000601f19601f8301169050919050565b600061123b826111d9565b61124581856111e4565b93506112558185602086016111f5565b61125e8161121f565b840191505092915050565b61127281611135565b82525050565b60008115159050919050565b61128d81611278565b82525050565b6000610120820190506112a9600083018c6111ca565b81810360208301526112bb818b611230565b905081810360408301526112cf818a611230565b905081810360608301526112e38189611230565b90506112f26080830188611269565b6112ff60a0830187611269565b61130c60c0830186611269565b61131960e0830185611284565b81810361010083015261132c8184611230565b90509a9950505050505050505050565b611345816111b8565b811461135057600080fd5b50565b6000813590506113628161133c565b92915050565b60006020828403121561137e5761137d61112b565b5b600061138c84828501611353565b91505092915050565b60006020820190506113aa6000830184611269565b92915050565b600081519050919050565b600082825260208201905092915050565b6000819050602082019050919050565b6113e5816111b8565b82525050565b600082825260208201905092915050565b6000611407826111d9565b61141181856113eb565b93506114218185602086016111f5565b61142a8161121f565b840191505092915050565b61143e81611135565b82525050565b61144d81611278565b82525050565b60006101208301600083015161146c60008601826113dc565b506020830151848203602086015261148482826113fc565b9150506040830151848203604086015261149e82826113fc565b915050606083015184820360608601526114b882826113fc565b91505060808301516114cd6080860182611435565b5060a08301516114e060a0860182611435565b5060c08301516114f360c0860182611435565b5060e083015161150660e0860182611444565b5061010083015184820361010086015261152082826113fc565b9150508091505092915050565b60006115398383611453565b905092915050565b6000602082019050919050565b6000611559826113b0565b61156381856113bb565b935083602082028501611575856113cc565b8060005b858110156115b15784840389528151611592858261152d565b945061159d83611541565b925060208a01995050600181019050611579565b50829750879550505050505092915050565b600060208201905081810360008301526115dd818461154e565b905092915050565b60006115f082611198565b9050919050565b611600816115e5565b811461160b57600080fd5b50565b60008135905061161d816115f7565b92915050565b6000602082840312156116395761163861112b565b5b60006116478482850161160e565b91505092915050565b60006020820190506116656000830184611284565b92915050565b600080fd5b600080fd5b7f4e487b7100000000000000000000000000000000000000000000000000000000600052604160045260246000fd5b6116ad8261121f565b810181811067ffffffffffffffff821117156116cc576116cb611675565b5b80604052505050565b60006116df611121565b90506116eb82826116a4565b919050565b600067ffffffffffffffff82111561170b5761170a611675565b5b6117148261121f565b9050602081019050919050565b82818337600083830152505050565b600061174361173e846116f0565b6116d5565b90508281526020810184848401111561175f5761175e611670565b5b61176a848285611721565b509392505050565b600082601f8301126117875761178661166b565b5b8135611797848260208601611730565b91505092915050565b6117a981611278565b81146117b457600080fd5b50565b6000813590506117c6816117a0565b92915050565b60008060008060008060008060006101208a8c0312156117ef576117ee61112b565b5b60006117fd8c828d01611353565b99505060208a013567ffffffffffffffff81111561181e5761181d611130565b5b61182a8c828d01611772565b98505060408a013567ffffffffffffffff81111561184b5761184a611130565b5b6118578c828d01611772565b97505060608a013567ffffffffffffffff81111561187857611877611130565b5b6118848c828d01611772565b96505060806118958c828d01611156565b95505060a06118a68c828d01611156565b94505060c06118b78c828d01611156565b93505060e06118c88c828d016117b7565b9250506101008a013567ffffffffffffffff8111156118ea576118e9611130565b5b6118f68c828d01611772565b9150509295985092959850929598565b600081519050919050565b600082825260208201905092915050565b6000819050602082019050919050565b61193b816115e5565b82525050565b600061194d8383611932565b60208301905092915050565b6000602082019050919050565b600061197182611906565b61197b8185611911565b935061198683611922565b8060005b838110156119b757815161199e8882611941565b97506119a983611959565b92505060018101905061198a565b5085935050505092915050565b600060208201905081810360008301526119de8184611966565b905092915050565b600080604083850312156119fd576119fc61112b565b5b6000611a0b8582860161160e565b9250506020611a1c8582860161160e565b9150509250929050565b7f4e487b7100000000000000000000000000000000000000000000000000000000600052602260045260246000fd5b60006002820490506001821680611a6d57607f821691505b602082108103611a8057611a7f611a26565b5b50919050565b7f4e487b7100000000000000000000000000000000000000000000000000000000600052603260045260246000fd5b7f596f75206d75737420626520746865206f776e657220746f207769746864726160008201527f7700000000000000000000000000000000000000000000000000000000000000602082015250565b6000611b116021836111e4565b9150611b1c82611ab5565b604082019050919050565b60006020820190508181036000830152611b4081611b04565b9050919050565b7f596f7520617265206e6f742061626c6520746f2077697468647261772061742060008201527f746869732074696d650000000000000000000000000000000000000000000000602082015250565b6000611ba36029836111e4565b9150611bae82611b47565b604082019050919050565b60006020820190508181036000830152611bd281611b96565b9050919050565b7f4e487b7100000000000000000000000000000000000000000000000000000000600052601160045260246000fd5b6000611c1382611135565b91507fffffffffffffffffffffffffffffffffffffffffffffffffffffffffffffffff8203611c4557611c44611bd9565b5b600182019050919050565b7f596f752063616e6e6f7420776974686472617720796574000000000000000000600082015250565b6000611c866017836111e4565b9150611c9182611c50565b602082019050919050565b60006020820190508181036000830152611cb581611c79565b9050919050565b7f4f6e6c7920746865206f776e65722063616e206164642063616d706169676e73600082015250565b6000611cf26020836111e4565b9150611cfd82611cbc565b602082019050919050565b60006020820190508181036000830152611d2181611ce5565b9050919050565b60008190508160005260206000209050919050565b60006020601f8301049050919050565b600082821b905092915050565b600060088302611d8a7fffffffffffffffffffffffffffffffffffffffffffffffffffffffffffffffff82611d4d565b611d948683611d4d565b95508019841693508086168417925050509392505050565b6000819050919050565b6000611dd1611dcc611dc784611135565b611dac565b611135565b9050919050565b6000819050919050565b611deb83611db6565b611dff611df782611dd8565b848454611d5a565b825550505050565b600090565b611e14611e07565b611e1f818484611de2565b505050565b5b81811015611e4357611e38600082611e0c565b600181019050611e25565b5050565b601f821115611e8857611e5981611d28565b611e6284611d3d565b81016020851015611e71578190505b611e85611e7d85611d3d565b830182611e24565b50505b505050565b600082821c905092915050565b6000611eab60001984600802611e8d565b1980831691505092915050565b6000611ec48383611e9a565b9150826002028217905092915050565b611edd826111d9565b67ffffffffffffffff811115611ef657611ef5611675565b5b611f008254611a55565b611f0b828285611e47565b600060209050601f831160018114611f3e5760008415611f2c578287015190505b611f368582611eb8565b865550611f9e565b601f198416611f4c86611d28565b60005b82811015611f7457848901518255600182019150602085019450602081019050611f4f565b86831015611f915784890151611f8d601f891682611e9a565b8355505b6001600288020188555050505b505050505050565b6000611fb182611135565b9150611fbc83611135565b9250828201905080821115611fd457611fd3611bd9565b5b92915050565b611fe3816115e5565b82525050565b6000606082019050611ffe6000830186611fda565b61200b6020830185611269565b6120186040830184611269565b94935050505056fea26469706673582212202a99c358a75504bc4281d19aa1c6d1a8651e9d06fe76e5e2dc8e0e22d5e7879664736f6c63430008120033",
  "immutableReferences": {},
  "source": "// SPDX-License-Identifier: GPL-3.0\r\n\r\npragma solidity >=0.7.0 <0.9.0;\r\n\r\ncontract CryptoKids {\r\n   \r\n    address owner;\r\n\r\n    event LogCampaignFundingReceived(address addr, uint amount, uint contractBalance);\r\n\r\n    constructor() {\r\n        owner = msg.sender;\r\n    }\r\n    struct Campaign {\r\n        address payable walletAddress;\r\n        string charityName;\r\n        string title;\r\n        string desc;\r\n        uint releaseTime;\r\n        uint target;\r\n        uint amount;\r\n        bool canWithdraw;\r\n        // uint noOfDonations;\r\n        string donators;\r\n    }\r\n\r\n    Campaign[] public campaigns;\r\n\r\n    address[] Depositdonators;\r\n\r\n    modifier onlyOwner() {\r\n        require(msg.sender == owner, \"Only the owner can add campaigns\");\r\n        _;\r\n    }\r\n\r\n    // add Campaign to contract\r\n    function addCampaign(address payable walletAddress, string memory charityName,string memory title, string memory desc, uint releaseTime, uint target,uint amount, bool canWithdraw,string memory donators) public onlyOwner {\r\n    //    uint noOfDonation = 0; \r\n\r\n        campaigns.push(Campaign(\r\n            walletAddress,\r\n            charityName,\r\n            title,\r\n            desc,\r\n            releaseTime,\r\n            target,\r\n            amount,\r\n            canWithdraw,\r\n            donators \r\n        ));\r\n\r\n    }\r\n\r\n\r\nfunction getMembers() public view returns (Campaign[] memory){\r\n      Campaign[] memory temp = new Campaign[](campaigns.length);\r\n      uint counter = 0;\r\n\r\n      for (uint i = 0; i < campaigns.length; i++) {\r\n          temp[counter] = campaigns[i];\r\n          counter++;\r\n      }\r\n      \r\n      Campaign[] memory result = new Campaign[] (counter);\r\n       for (uint i = 0; i < counter; i++) {\r\n         result[i] = temp[i];\r\n      }\r\n      return result;\r\n  \r\n}\r\n\r\n    function balanceOf() public view returns(uint) {\r\n        return address(this).balance;\r\n    }\r\n\r\n    function deposit(address walletAddress,address donators) payable public {\r\n        Depositdonators.push(donators);\r\n        addToKidsBalance(walletAddress);\r\n    }\r\n\r\n    function getDonators() public view returns(address[] memory) {\r\n        return Depositdonators;\r\n    }\r\n\r\n    function addToKidsBalance(address walletAddress) private {\r\n        for(uint i = 0; i < campaigns.length; i++) {\r\n            if(campaigns[i].walletAddress == walletAddress) {\r\n                campaigns[i].amount += msg.value;\r\n                emit LogCampaignFundingReceived(walletAddress, msg.value, balanceOf());\r\n            }\r\n        }\r\n    }\r\n\r\n    function getIndex(address walletAddress) view private returns(uint) {\r\n        for(uint i = 0; i < campaigns.length; i++) {\r\n            if (campaigns[i].walletAddress == walletAddress) {\r\n                return i;\r\n            }\r\n        }\r\n        return 999;\r\n    }\r\n\r\n    function availableToWithdraw(address walletAddress) public returns(bool) {\r\n        uint i = getIndex(walletAddress);\r\n        require(block.timestamp > campaigns[i].releaseTime, \"You cannot withdraw yet\");\r\n        if (block.timestamp > campaigns[i].releaseTime) {\r\n            campaigns[i].canWithdraw = true;\r\n            return true;\r\n        } else {\r\n            return false;\r\n        }\r\n    }\r\n\r\n    // withdraw money\r\n    function withdraw(address payable walletAddress) payable public {\r\n        uint i = getIndex(walletAddress);\r\n        require(msg.sender == campaigns[i].walletAddress, \"You must be the owner to withdraw\");\r\n        require(campaigns[i].canWithdraw == true, \"You are not able to withdraw at this time\");\r\n        campaigns[i].walletAddress.transfer(campaigns[i].amount);\r\n        getMembers();\r\n    }\r\n\r\n}\r\n\r\n",
  "sourcePath": "G:\\Web Development\\REACT\\crowd-truffle\\front-end\\contracts\\CryptoKids.sol",
  "compiler": {
    "name": "solc",
    "version": "0.8.18+commit.87f61d96.Emscripten.clang"
  },
  "schemaVersion": "3.4.12",
  "updatedAt": "2023-02-19T17:48:25.817Z",
  "networkType": "ethereum",
  "devdoc": {
    "kind": "dev",
    "methods": {},
    "version": 1
  },
  "userdoc": {
    "kind": "user",
    "methods": {},
    "version": 1
  }
}