{
  "contractName": "CryptoKids",
  "abi": [
    {
      "anonymous": false,
      "inputs": [
        {
          "indexed": false,
          "internalType": "address",
          "name": "addr",
          "type": "address"
        },
        {
          "indexed": false,
          "internalType": "uint256",
          "name": "amount",
          "type": "uint256"
        },
        {
          "indexed": false,
          "internalType": "uint256",
          "name": "contractBalance",
          "type": "uint256"
        }
      ],
      "name": "LogCampaignFundingReceived",
      "type": "event"
    },
    {
      "inputs": [
        {
          "internalType": "uint256",
          "name": "",
          "type": "uint256"
        }
      ],
      "name": "campaigns",
      "outputs": [
        {
          "internalType": "address payable",
          "name": "walletAddress",
          "type": "address"
        },
        {
          "internalType": "string",
          "name": "charityName",
          "type": "string"
        },
        {
          "internalType": "string",
          "name": "title",
          "type": "string"
        },
        {
          "internalType": "string",
          "name": "desc",
          "type": "string"
        },
        {
          "internalType": "uint256",
          "name": "releaseTime",
          "type": "uint256"
        },
        {
          "internalType": "uint256",
          "name": "target",
          "type": "uint256"
        },
        {
          "internalType": "uint256",
          "name": "amount",
          "type": "uint256"
        },
        {
          "internalType": "bool",
          "name": "canWithdraw",
          "type": "bool"
        },
        {
          "internalType": "address",
          "name": "creator",
          "type": "address"
        }
      ],
      "stateMutability": "view",
      "type": "function",
      "constant": true
    },
    {
      "inputs": [
        {
          "internalType": "uint256",
          "name": "",
          "type": "uint256"
        }
      ],
      "name": "donators",
      "outputs": [
        {
          "internalType": "address",
          "name": "walletAddress",
          "type": "address"
        },
        {
          "internalType": "address",
          "name": "donator",
          "type": "address"
        },
        {
          "internalType": "uint256",
          "name": "amount",
          "type": "uint256"
        }
      ],
      "stateMutability": "view",
      "type": "function",
      "constant": true
    },
    {
      "inputs": [
        {
          "internalType": "address payable",
          "name": "walletAddress",
          "type": "address"
        },
        {
          "internalType": "string",
          "name": "charityName",
          "type": "string"
        },
        {
          "internalType": "string",
          "name": "title",
          "type": "string"
        },
        {
          "internalType": "string",
          "name": "desc",
          "type": "string"
        },
        {
          "internalType": "uint256",
          "name": "releaseTime",
          "type": "uint256"
        },
        {
          "internalType": "uint256",
          "name": "target",
          "type": "uint256"
        },
        {
          "internalType": "uint256",
          "name": "amount",
          "type": "uint256"
        },
        {
          "internalType": "bool",
          "name": "canWithdraw",
          "type": "bool"
        },
        {
          "internalType": "address",
          "name": "creator",
          "type": "address"
        }
      ],
      "name": "addCampaign",
      "outputs": [],
      "stateMutability": "nonpayable",
      "type": "function"
    },
    {
      "inputs": [],
      "name": "getAllCampaigns",
      "outputs": [
        {
          "components": [
            {
              "internalType": "address payable",
              "name": "walletAddress",
              "type": "address"
            },
            {
              "internalType": "string",
              "name": "charityName",
              "type": "string"
            },
            {
              "internalType": "string",
              "name": "title",
              "type": "string"
            },
            {
              "internalType": "string",
              "name": "desc",
              "type": "string"
            },
            {
              "internalType": "uint256",
              "name": "releaseTime",
              "type": "uint256"
            },
            {
              "internalType": "uint256",
              "name": "target",
              "type": "uint256"
            },
            {
              "internalType": "uint256",
              "name": "amount",
              "type": "uint256"
            },
            {
              "internalType": "bool",
              "name": "canWithdraw",
              "type": "bool"
            },
            {
              "internalType": "address",
              "name": "creator",
              "type": "address"
            }
          ],
          "internalType": "struct CryptoKids.Campaign[]",
          "name": "",
          "type": "tuple[]"
        }
      ],
      "stateMutability": "view",
      "type": "function",
      "constant": true
    },
    {
      "inputs": [
        {
          "internalType": "address",
          "name": "walletAddress",
          "type": "address"
        }
      ],
      "name": "getCampaign",
      "outputs": [
        {
          "components": [
            {
              "internalType": "address payable",
              "name": "walletAddress",
              "type": "address"
            },
            {
              "internalType": "string",
              "name": "charityName",
              "type": "string"
            },
            {
              "internalType": "string",
              "name": "title",
              "type": "string"
            },
            {
              "internalType": "string",
              "name": "desc",
              "type": "string"
            },
            {
              "internalType": "uint256",
              "name": "releaseTime",
              "type": "uint256"
            },
            {
              "internalType": "uint256",
              "name": "target",
              "type": "uint256"
            },
            {
              "internalType": "uint256",
              "name": "amount",
              "type": "uint256"
            },
            {
              "internalType": "bool",
              "name": "canWithdraw",
              "type": "bool"
            },
            {
              "internalType": "address",
              "name": "creator",
              "type": "address"
            }
          ],
          "internalType": "struct CryptoKids.Campaign[]",
          "name": "",
          "type": "tuple[]"
        }
      ],
      "stateMutability": "view",
      "type": "function",
      "constant": true
    },
    {
      "inputs": [],
      "name": "balanceOf",
      "outputs": [
        {
          "internalType": "uint256",
          "name": "",
          "type": "uint256"
        }
      ],
      "stateMutability": "view",
      "type": "function",
      "constant": true
    },
    {
      "inputs": [
        {
          "internalType": "address",
          "name": "walletAddress",
          "type": "address"
        },
        {
          "internalType": "address",
          "name": "donator",
          "type": "address"
        }
      ],
      "name": "deposit",
      "outputs": [],
      "stateMutability": "payable",
      "type": "function",
      "payable": true
    },
    {
      "inputs": [
        {
          "internalType": "address",
          "name": "walletAddress",
          "type": "address"
        }
      ],
      "name": "getDonators",
      "outputs": [
        {
          "components": [
            {
              "internalType": "address",
              "name": "walletAddress",
              "type": "address"
            },
            {
              "internalType": "address",
              "name": "donator",
              "type": "address"
            },
            {
              "internalType": "uint256",
              "name": "amount",
              "type": "uint256"
            }
          ],
          "internalType": "struct CryptoKids.Donator[]",
          "name": "",
          "type": "tuple[]"
        }
      ],
      "stateMutability": "view",
      "type": "function",
      "constant": true
    },
    {
      "inputs": [
        {
          "internalType": "address",
          "name": "walletAddress",
          "type": "address"
        }
      ],
      "name": "availableToWithdraw",
      "outputs": [
        {
          "internalType": "bool",
          "name": "",
          "type": "bool"
        }
      ],
      "stateMutability": "nonpayable",
      "type": "function"
    },
    {
      "inputs": [
        {
          "internalType": "address payable",
          "name": "walletAddress",
          "type": "address"
        }
      ],
      "name": "withdraw",
      "outputs": [],
      "stateMutability": "payable",
      "type": "function",
      "payable": true
    }
  ],
  "bytecode": "0x608060405234801561001057600080fd5b5061282a806100206000396000f3fe6080604052600436106100915760003560e01c806386cdf6041161005957806386cdf60414610188578063a25db8ce146101b3578063a6841d04146101f0578063ac62f5661461022d578063f9609f081461026c57610091565b8063141961bc1461009657806351cff8d9146100db57806351fa2f64146100f7578063722713f714610120578063731301cf1461014b575b600080fd5b3480156100a257600080fd5b506100bd60048036038101906100b891906119ee565b610288565b6040516100d299989796959493929190611b37565b60405180910390f35b6100f560048036038101906100f09190611c05565b6104cb565b005b34801561010357600080fd5b5061011e60048036038101906101199190611dbf565b610606565b005b34801561012c57600080fd5b506101356107bb565b6040516101429190611edd565b60405180910390f35b34801561015757600080fd5b50610172600480360381019061016d9190611ef8565b6107c3565b60405161017f9190612140565b60405180910390f35b34801561019457600080fd5b5061019d610c48565b6040516101aa9190612140565b60405180910390f35b3480156101bf57600080fd5b506101da60048036038101906101d59190611ef8565b611079565b6040516101e79190612162565b60405180910390f35b3480156101fc57600080fd5b5061021760048036038101906102129190611ef8565b61116e565b604051610224919061226e565b60405180910390f35b34801561023957600080fd5b50610254600480360381019061024f91906119ee565b61140e565b60405161026393929190612290565b60405180910390f35b610286600480360381019061028191906122c7565b611488565b005b6000818154811061029857600080fd5b90600052602060002090600802016000915090508060000160009054906101000a900473ffffffffffffffffffffffffffffffffffffffff16908060010180546102e190612336565b80601f016020809104026020016040519081016040528092919081815260200182805461030d90612336565b801561035a5780601f1061032f5761010080835404028352916020019161035a565b820191906000526020600020905b81548152906001019060200180831161033d57829003601f168201915b50505050509080600201805461036f90612336565b80601f016020809104026020016040519081016040528092919081815260200182805461039b90612336565b80156103e85780601f106103bd576101008083540402835291602001916103e8565b820191906000526020600020905b8154815290600101906020018083116103cb57829003601f168201915b5050505050908060030180546103fd90612336565b80601f016020809104026020016040519081016040528092919081815260200182805461042990612336565b80156104765780601f1061044b57610100808354040283529160200191610476565b820191906000526020600020905b81548152906001019060200180831161045957829003601f168201915b5050505050908060040154908060050154908060060154908060070160009054906101000a900460ff16908060070160019054906101000a900473ffffffffffffffffffffffffffffffffffffffff16905089565b60006104d68261170a565b905060011515600082815481106104f0576104ef612367565b5b906000526020600020906008020160070160009054906101000a900460ff16151514610551576040517f08c379a000000000000000000000000000000000000000000000000000000000815260040161054890612408565b60405180910390fd5b6000818154811061056557610564612367565b5b906000526020600020906008020160000160009054906101000a900473ffffffffffffffffffffffffffffffffffffffff1673ffffffffffffffffffffffffffffffffffffffff166108fc600083815481106105c4576105c3612367565b5b9060005260206000209060080201600601549081150290604051600060405180830381858888f19350505050158015610601573d6000803e3d6000fd5b505050565b60006040518061012001604052808b73ffffffffffffffffffffffffffffffffffffffff1681526020018a815260200189815260200188815260200187815260200186815260200185815260200184151581526020018373ffffffffffffffffffffffffffffffffffffffff16815250908060018154018082558091505060019003906000526020600020906008020160009091909190915060008201518160000160006101000a81548173ffffffffffffffffffffffffffffffffffffffff021916908373ffffffffffffffffffffffffffffffffffffffff16021790555060208201518160010190816106fb91906125d4565b50604082015181600201908161071191906125d4565b50606082015181600301908161072791906125d4565b506080820151816004015560a0820151816005015560c0820151816006015560e08201518160070160006101000a81548160ff0219169083151502179055506101008201518160070160016101000a81548173ffffffffffffffffffffffffffffffffffffffff021916908373ffffffffffffffffffffffffffffffffffffffff1602179055505050505050505050505050565b600047905090565b60606000808054905067ffffffffffffffff8111156107e5576107e4611c3c565b5b60405190808252806020026020018201604052801561081e57816020015b61080b6118dd565b8152602001906001900390816108035790505b5090506000805b600080549050811015610b3a576000818154811061084657610845612367565b5b9060005260206000209060080201604051806101200160405290816000820160009054906101000a900473ffffffffffffffffffffffffffffffffffffffff1673ffffffffffffffffffffffffffffffffffffffff1673ffffffffffffffffffffffffffffffffffffffff1681526020016001820180546108c690612336565b80601f01602080910402602001604051908101604052809291908181526020018280546108f290612336565b801561093f5780601f106109145761010080835404028352916020019161093f565b820191906000526020600020905b81548152906001019060200180831161092257829003601f168201915b5050505050815260200160028201805461095890612336565b80601f016020809104026020016040519081016040528092919081815260200182805461098490612336565b80156109d15780601f106109a6576101008083540402835291602001916109d1565b820191906000526020600020905b8154815290600101906020018083116109b457829003601f168201915b505050505081526020016003820180546109ea90612336565b80601f0160208091040260200160405190810160405280929190818152602001828054610a1690612336565b8015610a635780601f10610a3857610100808354040283529160200191610a63565b820191906000526020600020905b815481529060010190602001808311610a4657829003601f168201915b505050505081526020016004820154815260200160058201548152602001600682015481526020016007820160009054906101000a900460ff161515151581526020016007820160019054906101000a900473ffffffffffffffffffffffffffffffffffffffff1673ffffffffffffffffffffffffffffffffffffffff1673ffffffffffffffffffffffffffffffffffffffff1681525050838381518110610b0e57610b0d612367565b5b60200260200101819052508180610b24906126d5565b9250508080610b32906126d5565b915050610825565b5060008167ffffffffffffffff811115610b5757610b56611c3c565b5b604051908082528060200260200182016040528015610b9057816020015b610b7d6118dd565b815260200190600190039081610b755790505b50905060005b82811015610c3c578573ffffffffffffffffffffffffffffffffffffffff16848281518110610bc857610bc7612367565b5b60200260200101516000015173ffffffffffffffffffffffffffffffffffffffff1603610c2957838181518110610c0257610c01612367565b5b6020026020010151828281518110610c1d57610c1c612367565b5b60200260200101819052505b8080610c34906126d5565b915050610b96565b50809350505050919050565b60606000808054905067ffffffffffffffff811115610c6a57610c69611c3c565b5b604051908082528060200260200182016040528015610ca357816020015b610c906118dd565b815260200190600190039081610c885790505b5090506000805b600080549050811015610fbf5760008181548110610ccb57610cca612367565b5b9060005260206000209060080201604051806101200160405290816000820160009054906101000a900473ffffffffffffffffffffffffffffffffffffffff1673ffffffffffffffffffffffffffffffffffffffff1673ffffffffffffffffffffffffffffffffffffffff168152602001600182018054610d4b90612336565b80601f0160208091040260200160405190810160405280929190818152602001828054610d7790612336565b8015610dc45780601f10610d9957610100808354040283529160200191610dc4565b820191906000526020600020905b815481529060010190602001808311610da757829003601f168201915b50505050508152602001600282018054610ddd90612336565b80601f0160208091040260200160405190810160405280929190818152602001828054610e0990612336565b8015610e565780601f10610e2b57610100808354040283529160200191610e56565b820191906000526020600020905b815481529060010190602001808311610e3957829003601f168201915b50505050508152602001600382018054610e6f90612336565b80601f0160208091040260200160405190810160405280929190818152602001828054610e9b90612336565b8015610ee85780601f10610ebd57610100808354040283529160200191610ee8565b820191906000526020600020905b815481529060010190602001808311610ecb57829003601f168201915b505050505081526020016004820154815260200160058201548152602001600682015481526020016007820160009054906101000a900460ff161515151581526020016007820160019054906101000a900473ffffffffffffffffffffffffffffffffffffffff1673ffffffffffffffffffffffffffffffffffffffff1673ffffffffffffffffffffffffffffffffffffffff1681525050838381518110610f9357610f92612367565b5b60200260200101819052508180610fa9906126d5565b9250508080610fb7906126d5565b915050610caa565b5060008167ffffffffffffffff811115610fdc57610fdb611c3c565b5b60405190808252806020026020018201604052801561101557816020015b6110026118dd565b815260200190600190039081610ffa5790505b50905060005b8281101561106f5783818151811061103657611035612367565b5b602002602001015182828151811061105157611050612367565b5b60200260200101819052508080611067906126d5565b91505061101b565b5080935050505090565b6000806110858361170a565b90506000818154811061109b5761109a612367565b5b90600052602060002090600802016004015442116110ee576040517f08c379a00000000000000000000000000000000000000000000000000000000081526004016110e590612769565b60405180910390fd5b6000818154811061110257611101612367565b5b9060005260206000209060080201600401544211156111635760016000828154811061113157611130612367565b5b906000526020600020906008020160070160006101000a81548160ff0219169083151502179055506001915050611169565b60009150505b919050565b6060600060018054905067ffffffffffffffff81111561119157611190611c3c565b5b6040519080825280602002602001820160405280156111ca57816020015b6111b7611957565b8152602001906001900390816111af5790505b5090506000805b60018054905081101561130057600181815481106111f2576111f1612367565b5b90600052602060002090600302016040518060600160405290816000820160009054906101000a900473ffffffffffffffffffffffffffffffffffffffff1673ffffffffffffffffffffffffffffffffffffffff1673ffffffffffffffffffffffffffffffffffffffff1681526020016001820160009054906101000a900473ffffffffffffffffffffffffffffffffffffffff1673ffffffffffffffffffffffffffffffffffffffff1673ffffffffffffffffffffffffffffffffffffffff1681526020016002820154815250508383815181106112d4576112d3612367565b5b602002602001018190525081806112ea906126d5565b92505080806112f8906126d5565b9150506111d1565b5060008167ffffffffffffffff81111561131d5761131c611c3c565b5b60405190808252806020026020018201604052801561135657816020015b611343611957565b81526020019060019003908161133b5790505b50905060005b82811015611402578573ffffffffffffffffffffffffffffffffffffffff1684828151811061138e5761138d612367565b5b60200260200101516000015173ffffffffffffffffffffffffffffffffffffffff16036113ef578381815181106113c8576113c7612367565b5b60200260200101518282815181106113e3576113e2612367565b5b60200260200101819052505b80806113fa906126d5565b91505061135c565b50809350505050919050565b6001818154811061141e57600080fd5b90600052602060002090600302016000915090508060000160009054906101000a900473ffffffffffffffffffffffffffffffffffffffff16908060010160009054906101000a900473ffffffffffffffffffffffffffffffffffffffff16908060020154905083565b6000805b6001805490508110156115e2578273ffffffffffffffffffffffffffffffffffffffff16600182815481106114c4576114c3612367565b5b906000526020600020906003020160010160009054906101000a900473ffffffffffffffffffffffffffffffffffffffff1673ffffffffffffffffffffffffffffffffffffffff1614801561158957508373ffffffffffffffffffffffffffffffffffffffff166001828154811061153f5761153e612367565b5b906000526020600020906003020160000160009054906101000a900473ffffffffffffffffffffffffffffffffffffffff1673ffffffffffffffffffffffffffffffffffffffff16145b156115cf5734600182815481106115a3576115a2612367565b5b906000526020600020906003020160020160008282546115c39190612789565b92505081905550600191505b80806115da906126d5565b91505061148c565b5060001515811515036116fc57600160405180606001604052808573ffffffffffffffffffffffffffffffffffffffff1681526020018473ffffffffffffffffffffffffffffffffffffffff16815260200134815250908060018154018082558091505060019003906000526020600020906003020160009091909190915060008201518160000160006101000a81548173ffffffffffffffffffffffffffffffffffffffff021916908373ffffffffffffffffffffffffffffffffffffffff16021790555060208201518160010160006101000a81548173ffffffffffffffffffffffffffffffffffffffff021916908373ffffffffffffffffffffffffffffffffffffffff1602179055506040820151816002015550505b611705836117bf565b505050565b600080600090505b6000805490508110156117b3578273ffffffffffffffffffffffffffffffffffffffff166000828154811061174a57611749612367565b5b906000526020600020906008020160000160009054906101000a900473ffffffffffffffffffffffffffffffffffffffff1673ffffffffffffffffffffffffffffffffffffffff16036117a057809150506117ba565b80806117ab906126d5565b915050611712565b506103e790505b919050565b60005b6000805490508110156118d9578173ffffffffffffffffffffffffffffffffffffffff16600082815481106117fa576117f9612367565b5b906000526020600020906008020160000160009054906101000a900473ffffffffffffffffffffffffffffffffffffffff1673ffffffffffffffffffffffffffffffffffffffff16036118c657346000828154811061185c5761185b612367565b5b9060005260206000209060080201600601600082825461187c9190612789565b925050819055507f108f3f8c139efd747a16652fefbfd2740fa1f1504bf3d45d2701e498296db50782346118ae6107bb565b6040516118bd939291906127bd565b60405180910390a15b80806118d1906126d5565b9150506117c2565b5050565b604051806101200160405280600073ffffffffffffffffffffffffffffffffffffffff168152602001606081526020016060815260200160608152602001600081526020016000815260200160008152602001600015158152602001600073ffffffffffffffffffffffffffffffffffffffff1681525090565b6040518060600160405280600073ffffffffffffffffffffffffffffffffffffffff168152602001600073ffffffffffffffffffffffffffffffffffffffff168152602001600081525090565b6000604051905090565b600080fd5b600080fd5b6000819050919050565b6119cb816119b8565b81146119d657600080fd5b50565b6000813590506119e8816119c2565b92915050565b600060208284031215611a0457611a036119ae565b5b6000611a12848285016119d9565b91505092915050565b600073ffffffffffffffffffffffffffffffffffffffff82169050919050565b6000611a4682611a1b565b9050919050565b611a5681611a3b565b82525050565b600081519050919050565b600082825260208201905092915050565b60005b83811015611a96578082015181840152602081019050611a7b565b60008484015250505050565b6000601f19601f8301169050919050565b6000611abe82611a5c565b611ac88185611a67565b9350611ad8818560208601611a78565b611ae181611aa2565b840191505092915050565b611af5816119b8565b82525050565b60008115159050919050565b611b1081611afb565b82525050565b6000611b2182611a1b565b9050919050565b611b3181611b16565b82525050565b600061012082019050611b4d600083018c611a4d565b8181036020830152611b5f818b611ab3565b90508181036040830152611b73818a611ab3565b90508181036060830152611b878189611ab3565b9050611b966080830188611aec565b611ba360a0830187611aec565b611bb060c0830186611aec565b611bbd60e0830185611b07565b611bcb610100830184611b28565b9a9950505050505050505050565b611be281611a3b565b8114611bed57600080fd5b50565b600081359050611bff81611bd9565b92915050565b600060208284031215611c1b57611c1a6119ae565b5b6000611c2984828501611bf0565b91505092915050565b600080fd5b600080fd5b7f4e487b7100000000000000000000000000000000000000000000000000000000600052604160045260246000fd5b611c7482611aa2565b810181811067ffffffffffffffff82111715611c9357611c92611c3c565b5b80604052505050565b6000611ca66119a4565b9050611cb28282611c6b565b919050565b600067ffffffffffffffff821115611cd257611cd1611c3c565b5b611cdb82611aa2565b9050602081019050919050565b82818337600083830152505050565b6000611d0a611d0584611cb7565b611c9c565b905082815260208101848484011115611d2657611d25611c37565b5b611d31848285611ce8565b509392505050565b600082601f830112611d4e57611d4d611c32565b5b8135611d5e848260208601611cf7565b91505092915050565b611d7081611afb565b8114611d7b57600080fd5b50565b600081359050611d8d81611d67565b92915050565b611d9c81611b16565b8114611da757600080fd5b50565b600081359050611db981611d93565b92915050565b60008060008060008060008060006101208a8c031215611de257611de16119ae565b5b6000611df08c828d01611bf0565b99505060208a013567ffffffffffffffff811115611e1157611e106119b3565b5b611e1d8c828d01611d39565b98505060408a013567ffffffffffffffff811115611e3e57611e3d6119b3565b5b611e4a8c828d01611d39565b97505060608a013567ffffffffffffffff811115611e6b57611e6a6119b3565b5b611e778c828d01611d39565b9650506080611e888c828d016119d9565b95505060a0611e998c828d016119d9565b94505060c0611eaa8c828d016119d9565b93505060e0611ebb8c828d01611d7e565b925050610100611ecd8c828d01611daa565b9150509295985092959850929598565b6000602082019050611ef26000830184611aec565b92915050565b600060208284031215611f0e57611f0d6119ae565b5b6000611f1c84828501611daa565b91505092915050565b600081519050919050565b600082825260208201905092915050565b6000819050602082019050919050565b611f5a81611a3b565b82525050565b600082825260208201905092915050565b6000611f7c82611a5c565b611f868185611f60565b9350611f96818560208601611a78565b611f9f81611aa2565b840191505092915050565b611fb3816119b8565b82525050565b611fc281611afb565b82525050565b611fd181611b16565b82525050565b600061012083016000830151611ff06000860182611f51565b50602083015184820360208601526120088282611f71565b915050604083015184820360408601526120228282611f71565b9150506060830151848203606086015261203c8282611f71565b91505060808301516120516080860182611faa565b5060a083015161206460a0860182611faa565b5060c083015161207760c0860182611faa565b5060e083015161208a60e0860182611fb9565b5061010083015161209f610100860182611fc8565b508091505092915050565b60006120b68383611fd7565b905092915050565b6000602082019050919050565b60006120d682611f25565b6120e08185611f30565b9350836020820285016120f285611f41565b8060005b8581101561212e578484038952815161210f85826120aa565b945061211a836120be565b925060208a019950506001810190506120f6565b50829750879550505050505092915050565b6000602082019050818103600083015261215a81846120cb565b905092915050565b60006020820190506121776000830184611b07565b92915050565b600081519050919050565b600082825260208201905092915050565b6000819050602082019050919050565b6060820160008201516121bf6000850182611fc8565b5060208201516121d26020850182611fc8565b5060408201516121e56040850182611faa565b50505050565b60006121f783836121a9565b60608301905092915050565b6000602082019050919050565b600061221b8261217d565b6122258185612188565b935061223083612199565b8060005b8381101561226157815161224888826121eb565b975061225383612203565b925050600181019050612234565b5085935050505092915050565b600060208201905081810360008301526122888184612210565b905092915050565b60006060820190506122a56000830186611b28565b6122b26020830185611b28565b6122bf6040830184611aec565b949350505050565b600080604083850312156122de576122dd6119ae565b5b60006122ec85828601611daa565b92505060206122fd85828601611daa565b9150509250929050565b7f4e487b7100000000000000000000000000000000000000000000000000000000600052602260045260246000fd5b6000600282049050600182168061234e57607f821691505b60208210810361236157612360612307565b5b50919050565b7f4e487b7100000000000000000000000000000000000000000000000000000000600052603260045260246000fd5b7f596f7520617265206e6f742061626c6520746f2077697468647261772061742060008201527f746869732074696d650000000000000000000000000000000000000000000000602082015250565b60006123f2602983611a67565b91506123fd82612396565b604082019050919050565b60006020820190508181036000830152612421816123e5565b9050919050565b60008190508160005260206000209050919050565b60006020601f8301049050919050565b600082821b905092915050565b60006008830261248a7fffffffffffffffffffffffffffffffffffffffffffffffffffffffffffffffff8261244d565b612494868361244d565b95508019841693508086168417925050509392505050565b6000819050919050565b60006124d16124cc6124c7846119b8565b6124ac565b6119b8565b9050919050565b6000819050919050565b6124eb836124b6565b6124ff6124f7826124d8565b84845461245a565b825550505050565b600090565b612514612507565b61251f8184846124e2565b505050565b5b818110156125435761253860008261250c565b600181019050612525565b5050565b601f8211156125885761255981612428565b6125628461243d565b81016020851015612571578190505b61258561257d8561243d565b830182612524565b50505b505050565b600082821c905092915050565b60006125ab6000198460080261258d565b1980831691505092915050565b60006125c4838361259a565b9150826002028217905092915050565b6125dd82611a5c565b67ffffffffffffffff8111156125f6576125f5611c3c565b5b6126008254612336565b61260b828285612547565b600060209050601f83116001811461263e576000841561262c578287015190505b61263685826125b8565b86555061269e565b601f19841661264c86612428565b60005b828110156126745784890151825560018201915060208501945060208101905061264f565b86831015612691578489015161268d601f89168261259a565b8355505b6001600288020188555050505b505050505050565b7f4e487b7100000000000000000000000000000000000000000000000000000000600052601160045260246000fd5b60006126e0826119b8565b91507fffffffffffffffffffffffffffffffffffffffffffffffffffffffffffffffff8203612712576127116126a6565b5b600182019050919050565b7f596f752063616e6e6f7420776974686472617720796574000000000000000000600082015250565b6000612753601783611a67565b915061275e8261271d565b602082019050919050565b6000602082019050818103600083015261278281612746565b9050919050565b6000612794826119b8565b915061279f836119b8565b92508282019050808211156127b7576127b66126a6565b5b92915050565b60006060820190506127d26000830186611b28565b6127df6020830185611aec565b6127ec6040830184611aec565b94935050505056fea26469706673582212203562eed2710e692b65636107a87bd6b3a83aafdd07881b0bf82612567938b34e64736f6c63430008120033",
  "immutableReferences": {},
  "source": "// SPDX-License-Identifier: GPL-3.0\r\n\r\npragma solidity >=0.7.0 <0.9.0;\r\n\r\ncontract CryptoKids {\r\n   \r\n   \r\n\r\n    event LogCampaignFundingReceived(address addr, uint amount, uint contractBalance);\r\n\r\n   \r\n    struct Campaign {\r\n        address payable walletAddress;\r\n        string charityName;\r\n        string title;\r\n        string desc;\r\n        uint releaseTime;\r\n        uint target;\r\n        uint amount;\r\n        bool canWithdraw;\r\n        address creator;\r\n    }\r\n\r\n    Campaign[] public campaigns;\r\n\r\n    struct Donator {\r\n        address walletAddress;\r\n        address donator;\r\n        uint amount;\r\n    }\r\n\r\n    Donator[] public donators;\r\n    // address[] Depositdonators;\r\n\r\n    // modifier onlyOwner() {\r\n    //     require(msg.sender == owner, \"Only the owner can add campaigns\");\r\n    //     _;\r\n    // }\r\n\r\n    // add Campaign to contract\r\n    function addCampaign(address payable walletAddress, string memory charityName,string memory title, string memory desc, uint releaseTime, uint target,uint amount, bool canWithdraw,address creator) public {\r\n    //    uint noOfDonation = 0; \r\n\r\n        campaigns.push(Campaign(\r\n            walletAddress,\r\n            charityName,\r\n            title,\r\n            desc,\r\n            releaseTime,\r\n            target,\r\n            amount,\r\n            canWithdraw,\r\n            creator\r\n        ));\r\n\r\n    }\r\n\r\n\r\nfunction getAllCampaigns() public view returns (Campaign[] memory){\r\n      Campaign[] memory temp = new Campaign[](campaigns.length);\r\n      uint counter = 0;\r\n\r\n      for (uint i = 0; i < campaigns.length; i++) {\r\n          temp[counter] = campaigns[i];\r\n          counter++;\r\n      }\r\n      \r\n      Campaign[] memory result = new Campaign[] (counter);\r\n       for (uint i = 0; i < counter; i++) {\r\n         result[i] = temp[i];\r\n      }\r\n      return result;\r\n}\r\n\r\nfunction getCampaign(address walletAddress) public view returns (Campaign[] memory){\r\n      Campaign[] memory temp = new Campaign[](campaigns.length);\r\n      uint counter = 0;\r\n\r\n      for (uint i = 0; i < campaigns.length; i++) {\r\n          temp[counter] = campaigns[i];\r\n          counter++;\r\n      }\r\n      \r\n      Campaign[] memory result = new Campaign[] (counter);\r\n       for (uint i = 0; i < counter; i++) {\r\n           if (temp[i].walletAddress == walletAddress){\r\n            result[i] = temp[i];\r\n           }\r\n      }\r\n      return result;\r\n}\r\n\r\n    function balanceOf() public view returns(uint) {\r\n        return address(this).balance;\r\n    }\r\n\r\n    function deposit(address walletAddress,address donator) payable public {\r\n        bool foundExistingDonator = false;\r\n\r\n        for(uint i = 0; i < donators.length; i++) {\r\n            if(donators[i].donator == donator && donators[i].walletAddress == walletAddress) {\r\n                donators[i].amount += msg.value;\r\n                foundExistingDonator = true;\r\n            }\r\n        }\r\n        if (foundExistingDonator == false){\r\n                donators.push(Donator(\r\n                walletAddress,\r\n                donator,\r\n                msg.value\r\n            ));\r\n        }\r\n       \r\n        \r\n        addToKidsBalance(walletAddress);\r\n    }\r\n\r\n    function getDonators(address walletAddress) public view returns(Donator[] memory) {\r\n        //retrive single campaign donators\r\n         Donator[] memory temp = new Donator[](donators.length);\r\n      uint counter = 0;\r\n\r\n      for (uint i = 0; i < donators.length; i++) {\r\n          temp[counter] = donators[i];\r\n          counter++;\r\n      }\r\n      \r\n      Donator[] memory result = new Donator[] (counter);\r\n       for (uint i = 0; i < counter; i++) {\r\n           if (temp[i].walletAddress == walletAddress){\r\n            result[i] = temp[i];\r\n           }\r\n      }\r\n      return result;\r\n    }\r\n\r\n    function addToKidsBalance(address walletAddress) private {\r\n        for(uint i = 0; i < campaigns.length; i++) {\r\n            if(campaigns[i].walletAddress == walletAddress) {\r\n                campaigns[i].amount += msg.value;\r\n                emit LogCampaignFundingReceived(walletAddress, msg.value, balanceOf());\r\n            }\r\n        }\r\n    }\r\n\r\n    function getIndex(address walletAddress) view private returns(uint) {\r\n        for(uint i = 0; i < campaigns.length; i++) {\r\n            if (campaigns[i].walletAddress == walletAddress) {\r\n                return i;\r\n            }\r\n        }\r\n        return 999;\r\n    }\r\n\r\n    function availableToWithdraw(address walletAddress) public returns(bool) {\r\n        uint i = getIndex(walletAddress);\r\n        require(block.timestamp > campaigns[i].releaseTime, \"You cannot withdraw yet\");\r\n        if (block.timestamp > campaigns[i].releaseTime) {\r\n            campaigns[i].canWithdraw = true;\r\n            return true;\r\n        } else {\r\n            return false;\r\n        }\r\n    }\r\n\r\n    // withdraw money\r\n    function withdraw(address payable walletAddress) payable public {\r\n        uint i = getIndex(walletAddress);\r\n        require(campaigns[i].canWithdraw == true, \"You are not able to withdraw at this time\");\r\n        campaigns[i].walletAddress.transfer(campaigns[i].amount);\r\n    }\r\n\r\n}\r\n\r\n",
  "sourcePath": "G:\\Web Development\\REACT\\crowd-truffle\\blockchain\\contracts\\CryptoKids.sol",
  "compiler": {
    "name": "solc",
    "version": "0.8.18+commit.87f61d96.Emscripten.clang"
  },
  "schemaVersion": "3.4.12",
  "updatedAt": "2023-02-27T04:30:15.588Z",
  "networkType": "ethereum",
  "devdoc": {
    "kind": "dev",
    "methods": {},
    "version": 1
  },
  "userdoc": {
    "kind": "user",
    "methods": {},
    "version": 1
  }
}