{
  "contractName": "CryptoKids",
  "abi": [
    {
      "anonymous": false,
      "inputs": [
        {
          "indexed": false,
          "internalType": "address",
          "name": "addr",
          "type": "address"
        },
        {
          "indexed": false,
          "internalType": "uint256",
          "name": "amount",
          "type": "uint256"
        },
        {
          "indexed": false,
          "internalType": "uint256",
          "name": "contractBalance",
          "type": "uint256"
        }
      ],
      "name": "LogCampaignFundingReceived",
      "type": "event"
    },
    {
      "inputs": [
        {
          "internalType": "uint256",
          "name": "",
          "type": "uint256"
        }
      ],
      "name": "campaigns",
      "outputs": [
        {
          "internalType": "string",
          "name": "id",
          "type": "string"
        },
        {
          "internalType": "address payable",
          "name": "walletAddress",
          "type": "address"
        },
        {
          "internalType": "string",
          "name": "charityName",
          "type": "string"
        },
        {
          "internalType": "string",
          "name": "title",
          "type": "string"
        },
        {
          "internalType": "string",
          "name": "desc",
          "type": "string"
        },
        {
          "internalType": "uint256",
          "name": "releaseTime",
          "type": "uint256"
        },
        {
          "internalType": "uint256",
          "name": "target",
          "type": "uint256"
        },
        {
          "internalType": "uint256",
          "name": "amount",
          "type": "uint256"
        },
        {
          "internalType": "bool",
          "name": "isCampaignEnded",
          "type": "bool"
        },
        {
          "internalType": "address",
          "name": "creator",
          "type": "address"
        }
      ],
      "stateMutability": "view",
      "type": "function",
      "constant": true
    },
    {
      "inputs": [
        {
          "internalType": "uint256",
          "name": "",
          "type": "uint256"
        }
      ],
      "name": "donators",
      "outputs": [
        {
          "internalType": "address",
          "name": "walletAddress",
          "type": "address"
        },
        {
          "internalType": "address",
          "name": "donator",
          "type": "address"
        },
        {
          "internalType": "uint256",
          "name": "amount",
          "type": "uint256"
        }
      ],
      "stateMutability": "view",
      "type": "function",
      "constant": true
    },
    {
      "inputs": [
        {
          "internalType": "string",
          "name": "id",
          "type": "string"
        },
        {
          "internalType": "address payable",
          "name": "walletAddress",
          "type": "address"
        },
        {
          "internalType": "string",
          "name": "charityName",
          "type": "string"
        },
        {
          "internalType": "string",
          "name": "title",
          "type": "string"
        },
        {
          "internalType": "string",
          "name": "desc",
          "type": "string"
        },
        {
          "internalType": "uint256",
          "name": "releaseTime",
          "type": "uint256"
        },
        {
          "internalType": "uint256",
          "name": "target",
          "type": "uint256"
        },
        {
          "internalType": "uint256",
          "name": "amount",
          "type": "uint256"
        },
        {
          "internalType": "address",
          "name": "creator",
          "type": "address"
        }
      ],
      "name": "addCampaign",
      "outputs": [],
      "stateMutability": "nonpayable",
      "type": "function"
    },
    {
      "inputs": [],
      "name": "getAllCampaigns",
      "outputs": [
        {
          "components": [
            {
              "internalType": "string",
              "name": "id",
              "type": "string"
            },
            {
              "internalType": "address payable",
              "name": "walletAddress",
              "type": "address"
            },
            {
              "internalType": "string",
              "name": "charityName",
              "type": "string"
            },
            {
              "internalType": "string",
              "name": "title",
              "type": "string"
            },
            {
              "internalType": "string",
              "name": "desc",
              "type": "string"
            },
            {
              "internalType": "uint256",
              "name": "releaseTime",
              "type": "uint256"
            },
            {
              "internalType": "uint256",
              "name": "target",
              "type": "uint256"
            },
            {
              "internalType": "uint256",
              "name": "amount",
              "type": "uint256"
            },
            {
              "internalType": "bool",
              "name": "isCampaignEnded",
              "type": "bool"
            },
            {
              "internalType": "address",
              "name": "creator",
              "type": "address"
            }
          ],
          "internalType": "struct CryptoKids.Campaign[]",
          "name": "",
          "type": "tuple[]"
        }
      ],
      "stateMutability": "view",
      "type": "function",
      "constant": true
    },
    {
      "inputs": [
        {
          "internalType": "string",
          "name": "id",
          "type": "string"
        }
      ],
      "name": "getCampaign",
      "outputs": [
        {
          "components": [
            {
              "internalType": "string",
              "name": "id",
              "type": "string"
            },
            {
              "internalType": "address payable",
              "name": "walletAddress",
              "type": "address"
            },
            {
              "internalType": "string",
              "name": "charityName",
              "type": "string"
            },
            {
              "internalType": "string",
              "name": "title",
              "type": "string"
            },
            {
              "internalType": "string",
              "name": "desc",
              "type": "string"
            },
            {
              "internalType": "uint256",
              "name": "releaseTime",
              "type": "uint256"
            },
            {
              "internalType": "uint256",
              "name": "target",
              "type": "uint256"
            },
            {
              "internalType": "uint256",
              "name": "amount",
              "type": "uint256"
            },
            {
              "internalType": "bool",
              "name": "isCampaignEnded",
              "type": "bool"
            },
            {
              "internalType": "address",
              "name": "creator",
              "type": "address"
            }
          ],
          "internalType": "struct CryptoKids.Campaign[]",
          "name": "",
          "type": "tuple[]"
        }
      ],
      "stateMutability": "view",
      "type": "function",
      "constant": true
    },
    {
      "inputs": [],
      "name": "balanceOf",
      "outputs": [
        {
          "internalType": "uint256",
          "name": "",
          "type": "uint256"
        }
      ],
      "stateMutability": "view",
      "type": "function",
      "constant": true
    },
    {
      "inputs": [
        {
          "internalType": "address",
          "name": "walletAddress",
          "type": "address"
        }
      ],
      "name": "getDonators",
      "outputs": [
        {
          "components": [
            {
              "internalType": "address",
              "name": "walletAddress",
              "type": "address"
            },
            {
              "internalType": "address",
              "name": "donator",
              "type": "address"
            },
            {
              "internalType": "uint256",
              "name": "amount",
              "type": "uint256"
            }
          ],
          "internalType": "struct CryptoKids.Donator[]",
          "name": "",
          "type": "tuple[]"
        }
      ],
      "stateMutability": "view",
      "type": "function",
      "constant": true
    },
    {
      "inputs": [
        {
          "internalType": "string",
          "name": "id",
          "type": "string"
        },
        {
          "internalType": "uint256",
          "name": "amount",
          "type": "uint256"
        }
      ],
      "name": "addToKidsBalance",
      "outputs": [],
      "stateMutability": "nonpayable",
      "type": "function"
    },
    {
      "inputs": [
        {
          "internalType": "string",
          "name": "id",
          "type": "string"
        }
      ],
      "name": "availableToWithdraw",
      "outputs": [
        {
          "internalType": "bool",
          "name": "",
          "type": "bool"
        }
      ],
      "stateMutability": "nonpayable",
      "type": "function"
    }
  ],
  "bytecode": "0x608060405234801561001057600080fd5b50612555806100206000396000f3fe608060405234801561001057600080fd5b50600436106100935760003560e01c806386cdf6041161006657806386cdf6041461013b578063a6841d0414610159578063ac62f56614610189578063b1ca4f4a146101bb578063cc8ef584146101d757610093565b8063141961bc1461009857806352bf36ec146100d1578063722713f7146101015780637436acdd1461011f575b600080fd5b6100b260048036038101906100ad91906116a7565b610207565b6040516100c89a999897969594939291906117f0565b60405180910390f35b6100eb60048036038101906100e691906119dd565b6104d8565b6040516100f89190611c5d565b60405180910390f35b610109610952565b6040516101169190611c7f565b60405180910390f35b61013960048036038101906101349190611cf2565b61095a565b005b610143610b2d565b6040516101509190611c5d565b60405180910390f35b610173600480360381019061016e9190611e2c565b610ff0565b6040516101809190611f4a565b60405180910390f35b6101a3600480360381019061019e91906116a7565b611290565b6040516101b293929190611f6c565b60405180910390f35b6101d560048036038101906101d09190611fa3565b61130a565b005b6101f160048036038101906101ec91906119dd565b6113e6565b6040516101fe9190611fff565b60405180910390f35b6000818154811061021757600080fd5b906000526020600020906009020160009150905080600001805461023a90612049565b80601f016020809104026020016040519081016040528092919081815260200182805461026690612049565b80156102b35780601f10610288576101008083540402835291602001916102b3565b820191906000526020600020905b81548152906001019060200180831161029657829003601f168201915b5050505050908060010160009054906101000a900473ffffffffffffffffffffffffffffffffffffffff16908060020180546102ee90612049565b80601f016020809104026020016040519081016040528092919081815260200182805461031a90612049565b80156103675780601f1061033c57610100808354040283529160200191610367565b820191906000526020600020905b81548152906001019060200180831161034a57829003601f168201915b50505050509080600301805461037c90612049565b80601f01602080910402602001604051908101604052809291908181526020018280546103a890612049565b80156103f55780601f106103ca576101008083540402835291602001916103f5565b820191906000526020600020905b8154815290600101906020018083116103d857829003601f168201915b50505050509080600401805461040a90612049565b80601f016020809104026020016040519081016040528092919081815260200182805461043690612049565b80156104835780601f1061045857610100808354040283529160200191610483565b820191906000526020600020905b81548152906001019060200180831161046657829003601f168201915b5050505050908060050154908060060154908060070154908060080160009054906101000a900460ff16908060080160019054906101000a900473ffffffffffffffffffffffffffffffffffffffff1690508a565b60606000600167ffffffffffffffff8111156104f7576104f66118b2565b5b60405190808252806020026020018201604052801561053057816020015b61051d61158f565b8152602001906001900390816105155790505b50905060005b600080549050811015610948578360405160200161055491906120b6565b604051602081830303815290604052805190602001206000828154811061057e5761057d6120cd565b5b906000526020600020906009020160000160405160200161059f9190612194565b604051602081830303815290604052805190602001200361093557600081815481106105ce576105cd6120cd565b5b9060005260206000209060090201604051806101400160405290816000820180546105f890612049565b80601f016020809104026020016040519081016040528092919081815260200182805461062490612049565b80156106715780601f1061064657610100808354040283529160200191610671565b820191906000526020600020905b81548152906001019060200180831161065457829003601f168201915b505050505081526020016001820160009054906101000a900473ffffffffffffffffffffffffffffffffffffffff1673ffffffffffffffffffffffffffffffffffffffff1673ffffffffffffffffffffffffffffffffffffffff1681526020016002820180546106e090612049565b80601f016020809104026020016040519081016040528092919081815260200182805461070c90612049565b80156107595780601f1061072e57610100808354040283529160200191610759565b820191906000526020600020905b81548152906001019060200180831161073c57829003601f168201915b5050505050815260200160038201805461077290612049565b80601f016020809104026020016040519081016040528092919081815260200182805461079e90612049565b80156107eb5780601f106107c0576101008083540402835291602001916107eb565b820191906000526020600020905b8154815290600101906020018083116107ce57829003601f168201915b5050505050815260200160048201805461080490612049565b80601f016020809104026020016040519081016040528092919081815260200182805461083090612049565b801561087d5780601f106108525761010080835404028352916020019161087d565b820191906000526020600020905b81548152906001019060200180831161086057829003601f168201915b505050505081526020016005820154815260200160068201548152602001600782015481526020016008820160009054906101000a900460ff161515151581526020016008820160019054906101000a900473ffffffffffffffffffffffffffffffffffffffff1673ffffffffffffffffffffffffffffffffffffffff1673ffffffffffffffffffffffffffffffffffffffff168152505082600081518110610929576109286120cd565b5b60200260200101819052505b8080610940906121da565b915050610536565b5080915050919050565b600047905090565b60006040518061014001604052808b81526020018a73ffffffffffffffffffffffffffffffffffffffff1681526020018981526020018881526020018781526020018681526020018581526020018481526020016000151581526020018373ffffffffffffffffffffffffffffffffffffffff1681525090806001815401808255809150506001900390600052602060002090600902016000909190919091506000820151816000019081610a0f91906123b9565b5060208201518160010160006101000a81548173ffffffffffffffffffffffffffffffffffffffff021916908373ffffffffffffffffffffffffffffffffffffffff1602179055506040820151816002019081610a6c91906123b9565b506060820151816003019081610a8291906123b9565b506080820151816004019081610a9891906123b9565b5060a0820151816005015560c0820151816006015560e082015181600701556101008201518160080160006101000a81548160ff0219169083151502179055506101208201518160080160016101000a81548173ffffffffffffffffffffffffffffffffffffffff021916908373ffffffffffffffffffffffffffffffffffffffff1602179055505050505050505050505050565b60606000808054905067ffffffffffffffff811115610b4f57610b4e6118b2565b5b604051908082528060200260200182016040528015610b8857816020015b610b7561158f565b815260200190600190039081610b6d5790505b5090506000805b600080549050811015610f365760008181548110610bb057610baf6120cd565b5b906000526020600020906009020160405180610140016040529081600082018054610bda90612049565b80601f0160208091040260200160405190810160405280929190818152602001828054610c0690612049565b8015610c535780601f10610c2857610100808354040283529160200191610c53565b820191906000526020600020905b815481529060010190602001808311610c3657829003601f168201915b505050505081526020016001820160009054906101000a900473ffffffffffffffffffffffffffffffffffffffff1673ffffffffffffffffffffffffffffffffffffffff1673ffffffffffffffffffffffffffffffffffffffff168152602001600282018054610cc290612049565b80601f0160208091040260200160405190810160405280929190818152602001828054610cee90612049565b8015610d3b5780601f10610d1057610100808354040283529160200191610d3b565b820191906000526020600020905b815481529060010190602001808311610d1e57829003601f168201915b50505050508152602001600382018054610d5490612049565b80601f0160208091040260200160405190810160405280929190818152602001828054610d8090612049565b8015610dcd5780601f10610da257610100808354040283529160200191610dcd565b820191906000526020600020905b815481529060010190602001808311610db057829003601f168201915b50505050508152602001600482018054610de690612049565b80601f0160208091040260200160405190810160405280929190818152602001828054610e1290612049565b8015610e5f5780601f10610e3457610100808354040283529160200191610e5f565b820191906000526020600020905b815481529060010190602001808311610e4257829003601f168201915b505050505081526020016005820154815260200160068201548152602001600782015481526020016008820160009054906101000a900460ff161515151581526020016008820160019054906101000a900473ffffffffffffffffffffffffffffffffffffffff1673ffffffffffffffffffffffffffffffffffffffff1673ffffffffffffffffffffffffffffffffffffffff1681525050838381518110610f0a57610f096120cd565b5b60200260200101819052508180610f20906121da565b9250508080610f2e906121da565b915050610b8f565b5060008167ffffffffffffffff811115610f5357610f526118b2565b5b604051908082528060200260200182016040528015610f8c57816020015b610f7961158f565b815260200190600190039081610f715790505b50905060005b82811015610fe657838181518110610fad57610fac6120cd565b5b6020026020010151828281518110610fc857610fc76120cd565b5b60200260200101819052508080610fde906121da565b915050610f92565b5080935050505090565b6060600060018054905067ffffffffffffffff811115611013576110126118b2565b5b60405190808252806020026020018201604052801561104c57816020015b611039611610565b8152602001906001900390816110315790505b5090506000805b6001805490508110156111825760018181548110611074576110736120cd565b5b90600052602060002090600302016040518060600160405290816000820160009054906101000a900473ffffffffffffffffffffffffffffffffffffffff1673ffffffffffffffffffffffffffffffffffffffff1673ffffffffffffffffffffffffffffffffffffffff1681526020016001820160009054906101000a900473ffffffffffffffffffffffffffffffffffffffff1673ffffffffffffffffffffffffffffffffffffffff1673ffffffffffffffffffffffffffffffffffffffff168152602001600282015481525050838381518110611156576111556120cd565b5b6020026020010181905250818061116c906121da565b925050808061117a906121da565b915050611053565b5060008167ffffffffffffffff81111561119f5761119e6118b2565b5b6040519080825280602002602001820160405280156111d857816020015b6111c5611610565b8152602001906001900390816111bd5790505b50905060005b82811015611284578573ffffffffffffffffffffffffffffffffffffffff168482815181106112105761120f6120cd565b5b60200260200101516000015173ffffffffffffffffffffffffffffffffffffffff16036112715783818151811061124a576112496120cd565b5b6020026020010151828281518110611265576112646120cd565b5b60200260200101819052505b808061127c906121da565b9150506111de565b50809350505050919050565b600181815481106112a057600080fd5b90600052602060002090600302016000915090508060000160009054906101000a900473ffffffffffffffffffffffffffffffffffffffff16908060010160009054906101000a900473ffffffffffffffffffffffffffffffffffffffff16908060020154905083565b60005b6000805490508110156113e1578260405160200161132b91906120b6565b6040516020818303038152906040528051906020012060008281548110611355576113546120cd565b5b90600052602060002090600902016000016040516020016113769190612194565b60405160208183030381529060405280519060200120036113ce5781600082815481106113a6576113a56120cd565b5b906000526020600020906009020160070160008282546113c6919061248b565b925050819055505b80806113d9906121da565b91505061130d565b505050565b6000806113f2836114db565b905060008181548110611408576114076120cd565b5b906000526020600020906009020160050154421180611483575060008181548110611436576114356120cd565b5b906000526020600020906009020160060154670de0b6b3a764000060008381548110611465576114646120cd565b5b90600052602060002090600902016007015461148191906124ee565b145b156114d05760016000828154811061149e5761149d6120cd565b5b906000526020600020906009020160080160006101000a81548160ff02191690831515021790555060019150506114d6565b60009150505b919050565b600080600090505b600080549050811015611583578260405160200161150191906120b6565b604051602081830303815290604052805190602001206000828154811061152b5761152a6120cd565b5b906000526020600020906009020160000160405160200161154c9190612194565b6040516020818303038152906040528051906020012003611570578091505061158a565b808061157b906121da565b9150506114e3565b506103e790505b919050565b60405180610140016040528060608152602001600073ffffffffffffffffffffffffffffffffffffffff168152602001606081526020016060815260200160608152602001600081526020016000815260200160008152602001600015158152602001600073ffffffffffffffffffffffffffffffffffffffff1681525090565b6040518060600160405280600073ffffffffffffffffffffffffffffffffffffffff168152602001600073ffffffffffffffffffffffffffffffffffffffff168152602001600081525090565b6000604051905090565b600080fd5b600080fd5b6000819050919050565b61168481611671565b811461168f57600080fd5b50565b6000813590506116a18161167b565b92915050565b6000602082840312156116bd576116bc611667565b5b60006116cb84828501611692565b91505092915050565b600081519050919050565b600082825260208201905092915050565b60005b8381101561170e5780820151818401526020810190506116f3565b60008484015250505050565b6000601f19601f8301169050919050565b6000611736826116d4565b61174081856116df565b93506117508185602086016116f0565b6117598161171a565b840191505092915050565b600073ffffffffffffffffffffffffffffffffffffffff82169050919050565b600061178f82611764565b9050919050565b61179f81611784565b82525050565b6117ae81611671565b82525050565b60008115159050919050565b6117c9816117b4565b82525050565b60006117da82611764565b9050919050565b6117ea816117cf565b82525050565b600061014082019050818103600083015261180b818d61172b565b905061181a602083018c611796565b818103604083015261182c818b61172b565b90508181036060830152611840818a61172b565b90508181036080830152611854818961172b565b905061186360a08301886117a5565b61187060c08301876117a5565b61187d60e08301866117a5565b61188b6101008301856117c0565b6118996101208301846117e1565b9b9a5050505050505050505050565b600080fd5b600080fd5b7f4e487b7100000000000000000000000000000000000000000000000000000000600052604160045260246000fd5b6118ea8261171a565b810181811067ffffffffffffffff82111715611909576119086118b2565b5b80604052505050565b600061191c61165d565b905061192882826118e1565b919050565b600067ffffffffffffffff821115611948576119476118b2565b5b6119518261171a565b9050602081019050919050565b82818337600083830152505050565b600061198061197b8461192d565b611912565b90508281526020810184848401111561199c5761199b6118ad565b5b6119a784828561195e565b509392505050565b600082601f8301126119c4576119c36118a8565b5b81356119d484826020860161196d565b91505092915050565b6000602082840312156119f3576119f2611667565b5b600082013567ffffffffffffffff811115611a1157611a1061166c565b5b611a1d848285016119af565b91505092915050565b600081519050919050565b600082825260208201905092915050565b6000819050602082019050919050565b600082825260208201905092915050565b6000611a6e826116d4565b611a788185611a52565b9350611a888185602086016116f0565b611a918161171a565b840191505092915050565b611aa581611784565b82525050565b611ab481611671565b82525050565b611ac3816117b4565b82525050565b611ad2816117cf565b82525050565b6000610140830160008301518482036000860152611af68282611a63565b9150506020830151611b0b6020860182611a9c565b5060408301518482036040860152611b238282611a63565b91505060608301518482036060860152611b3d8282611a63565b91505060808301518482036080860152611b578282611a63565b91505060a0830151611b6c60a0860182611aab565b5060c0830151611b7f60c0860182611aab565b5060e0830151611b9260e0860182611aab565b50610100830151611ba7610100860182611aba565b50610120830151611bbc610120860182611ac9565b508091505092915050565b6000611bd38383611ad8565b905092915050565b6000602082019050919050565b6000611bf382611a26565b611bfd8185611a31565b935083602082028501611c0f85611a42565b8060005b85811015611c4b5784840389528151611c2c8582611bc7565b9450611c3783611bdb565b925060208a01995050600181019050611c13565b50829750879550505050505092915050565b60006020820190508181036000830152611c778184611be8565b905092915050565b6000602082019050611c9460008301846117a5565b92915050565b611ca381611784565b8114611cae57600080fd5b50565b600081359050611cc081611c9a565b92915050565b611ccf816117cf565b8114611cda57600080fd5b50565b600081359050611cec81611cc6565b92915050565b60008060008060008060008060006101208a8c031215611d1557611d14611667565b5b60008a013567ffffffffffffffff811115611d3357611d3261166c565b5b611d3f8c828d016119af565b9950506020611d508c828d01611cb1565b98505060408a013567ffffffffffffffff811115611d7157611d7061166c565b5b611d7d8c828d016119af565b97505060608a013567ffffffffffffffff811115611d9e57611d9d61166c565b5b611daa8c828d016119af565b96505060808a013567ffffffffffffffff811115611dcb57611dca61166c565b5b611dd78c828d016119af565b95505060a0611de88c828d01611692565b94505060c0611df98c828d01611692565b93505060e0611e0a8c828d01611692565b925050610100611e1c8c828d01611cdd565b9150509295985092959850929598565b600060208284031215611e4257611e41611667565b5b6000611e5084828501611cdd565b91505092915050565b600081519050919050565b600082825260208201905092915050565b6000819050602082019050919050565b606082016000820151611e9b6000850182611ac9565b506020820151611eae6020850182611ac9565b506040820151611ec16040850182611aab565b50505050565b6000611ed38383611e85565b60608301905092915050565b6000602082019050919050565b6000611ef782611e59565b611f018185611e64565b9350611f0c83611e75565b8060005b83811015611f3d578151611f248882611ec7565b9750611f2f83611edf565b925050600181019050611f10565b5085935050505092915050565b60006020820190508181036000830152611f648184611eec565b905092915050565b6000606082019050611f8160008301866117e1565b611f8e60208301856117e1565b611f9b60408301846117a5565b949350505050565b60008060408385031215611fba57611fb9611667565b5b600083013567ffffffffffffffff811115611fd857611fd761166c565b5b611fe4858286016119af565b9250506020611ff585828601611692565b9150509250929050565b600060208201905061201460008301846117c0565b92915050565b7f4e487b7100000000000000000000000000000000000000000000000000000000600052602260045260246000fd5b6000600282049050600182168061206157607f821691505b6020821081036120745761207361201a565b5b50919050565b600081905092915050565b6000612090826116d4565b61209a818561207a565b93506120aa8185602086016116f0565b80840191505092915050565b60006120c28284612085565b915081905092915050565b7f4e487b7100000000000000000000000000000000000000000000000000000000600052603260045260246000fd5b60008190508160005260206000209050919050565b6000815461211e81612049565b612128818661207a565b9450600182166000811461214357600181146121585761218b565b60ff198316865281151582028601935061218b565b612161856120fc565b60005b8381101561218357815481890152600182019150602081019050612164565b838801955050505b50505092915050565b60006121a08284612111565b915081905092915050565b7f4e487b7100000000000000000000000000000000000000000000000000000000600052601160045260246000fd5b60006121e582611671565b91507fffffffffffffffffffffffffffffffffffffffffffffffffffffffffffffffff8203612217576122166121ab565b5b600182019050919050565b60006020601f8301049050919050565b600082821b905092915050565b60006008830261226f7fffffffffffffffffffffffffffffffffffffffffffffffffffffffffffffffff82612232565b6122798683612232565b95508019841693508086168417925050509392505050565b6000819050919050565b60006122b66122b16122ac84611671565b612291565b611671565b9050919050565b6000819050919050565b6122d08361229b565b6122e46122dc826122bd565b84845461223f565b825550505050565b600090565b6122f96122ec565b6123048184846122c7565b505050565b5b818110156123285761231d6000826122f1565b60018101905061230a565b5050565b601f82111561236d5761233e816120fc565b61234784612222565b81016020851015612356578190505b61236a61236285612222565b830182612309565b50505b505050565b600082821c905092915050565b600061239060001984600802612372565b1980831691505092915050565b60006123a9838361237f565b9150826002028217905092915050565b6123c2826116d4565b67ffffffffffffffff8111156123db576123da6118b2565b5b6123e58254612049565b6123f082828561232c565b600060209050601f8311600181146124235760008415612411578287015190505b61241b858261239d565b865550612483565b601f198416612431866120fc565b60005b8281101561245957848901518255600182019150602085019450602081019050612434565b868310156124765784890151612472601f89168261237f565b8355505b6001600288020188555050505b505050505050565b600061249682611671565b91506124a183611671565b92508282019050808211156124b9576124b86121ab565b5b92915050565b7f4e487b7100000000000000000000000000000000000000000000000000000000600052601260045260246000fd5b60006124f982611671565b915061250483611671565b925082612514576125136124bf565b5b82820490509291505056fea26469706673582212205f6da85847c56cbb5a11ebe9b6682e2646aa62d3d1f2775ab7a9af3983fa058c64736f6c63430008120033",
  "immutableReferences": {},
  "source": "    // SPDX-License-Identifier: GPL-3.0\r\n\r\n    pragma solidity >=0.7.0 <0.9.0;\r\n\r\n    contract CryptoKids {\r\n    \r\n    \r\n\r\n        event LogCampaignFundingReceived(address addr, uint amount, uint contractBalance);\r\n\r\n    \r\n        struct Campaign {\r\n            string id;\r\n            address payable walletAddress;\r\n            string charityName;\r\n            string title;\r\n            string desc;\r\n            uint releaseTime;\r\n            uint target;\r\n            uint amount;\r\n            bool isCampaignEnded;\r\n            address creator;\r\n        }\r\n\r\n        Campaign[] public campaigns;\r\n\r\n        struct Donator {\r\n            address walletAddress;\r\n            address donator;\r\n            uint amount;\r\n        }\r\n\r\n        Donator[] public donators;\r\n\r\n        address payable depositAccount;\r\n\r\n        function addCampaign(string memory id,address payable walletAddress, string memory charityName,string memory title, string memory desc, uint releaseTime, uint target,uint amount,address creator) public {\r\n\r\n            campaigns.push(Campaign(\r\nid,\r\n                walletAddress,\r\n                charityName,\r\n                title,\r\n                desc,\r\n                releaseTime,\r\n                target,\r\n                amount,\r\n                false,\r\n                creator\r\n            ));\r\n\r\n        }\r\n\r\n\r\n    function getAllCampaigns() public view returns (Campaign[] memory){\r\n        Campaign[] memory temp = new Campaign[](campaigns.length);\r\n        uint counter = 0;\r\n\r\n        for (uint i = 0; i < campaigns.length; i++) {\r\n            temp[counter] = campaigns[i];\r\n            counter++;\r\n        }\r\n        \r\n        Campaign[] memory result = new Campaign[] (counter);\r\n        for (uint i = 0; i < counter; i++) {\r\n            result[i] = temp[i];\r\n        }\r\n        return result;\r\n    }\r\n\r\n    function getCampaign(string memory id) public view returns (Campaign[] memory){\r\n\r\n        \r\n        Campaign[] memory result = new Campaign[] (1);\r\n        for (uint i = 0; i < campaigns.length; i++) {\r\n            if (keccak256(abi.encodePacked(campaigns[i].id))==  keccak256(abi.encodePacked(id))){\r\n                result[0] = campaigns[i];\r\n            }\r\n        }\r\n\r\n        return result;\r\n    }\r\n\r\n        function balanceOf() public view returns(uint) {\r\n            return address(this).balance;\r\n        }\r\n\r\n\r\n        function getDonators(address walletAddress) public view returns(Donator[] memory) {\r\n            //retrive single campaign donators\r\n            Donator[] memory temp = new Donator[](donators.length);\r\n        uint counter = 0;\r\n\r\n        for (uint i = 0; i < donators.length; i++) {\r\n            temp[counter] = donators[i];\r\n            counter++;\r\n        }\r\n        \r\n        Donator[] memory result = new Donator[] (counter);\r\n        for (uint i = 0; i < counter; i++) {\r\n            if (temp[i].walletAddress == walletAddress){\r\n                result[i] = temp[i];\r\n            }\r\n        }\r\n        return result;\r\n        }\r\n\r\n        function addToKidsBalance(string memory id,uint amount)  public   {\r\n            for(uint i = 0; i < campaigns.length; i++) {\r\n               if (keccak256(abi.encodePacked(campaigns[i].id))==  keccak256(abi.encodePacked(id))){\r\n                 campaigns[i].amount += amount;\r\n            }        \r\n            }\r\n        }\r\n\r\n        function getIndex(string memory id) view private returns(uint) {\r\n            for(uint i = 0; i < campaigns.length; i++) {\r\n                if (keccak256(abi.encodePacked(campaigns[i].id))==  keccak256(abi.encodePacked(id))){\r\n                 return i;\r\n            }             \r\n                }\r\n            return 999;\r\n        }\r\n\r\n        function availableToWithdraw(string memory id) public  returns(bool) {\r\n            uint i = getIndex(id);\r\n            \r\n            if (block.timestamp > campaigns[i].releaseTime || campaigns[i].amount / 1 ether == campaigns[i].target) {\r\n                campaigns[i].isCampaignEnded=true;\r\n                return true;\r\n            } else {\r\n                return false;\r\n            }\r\n        }\r\n\r\n      \r\n    }\r\n\r\n",
  "sourcePath": "G:\\Web Development\\REACT\\crowd-truffle\\blockchain\\contracts\\CryptoKids.sol",
  "compiler": {
    "name": "solc",
    "version": "0.8.18+commit.87f61d96.Emscripten.clang"
  },
  "schemaVersion": "3.4.12",
  "updatedAt": "2023-04-16T21:15:49.158Z",
  "networkType": "ethereum",
  "devdoc": {
    "kind": "dev",
    "methods": {},
    "version": 1
  },
  "userdoc": {
    "kind": "user",
    "methods": {},
    "version": 1
  }
}