{
  "contractName": "CryptoKids",
  "abi": [
    {
      "anonymous": false,
      "inputs": [
        {
          "indexed": false,
          "internalType": "address",
          "name": "addr",
          "type": "address"
        },
        {
          "indexed": false,
          "internalType": "uint256",
          "name": "amount",
          "type": "uint256"
        },
        {
          "indexed": false,
          "internalType": "uint256",
          "name": "contractBalance",
          "type": "uint256"
        }
      ],
      "name": "LogCampaignFundingReceived",
      "type": "event"
    },
    {
      "inputs": [
        {
          "internalType": "uint256",
          "name": "",
          "type": "uint256"
        }
      ],
      "name": "campaigns",
      "outputs": [
        {
          "internalType": "string",
          "name": "id",
          "type": "string"
        },
        {
          "internalType": "address payable",
          "name": "walletAddress",
          "type": "address"
        },
        {
          "internalType": "string",
          "name": "charityName",
          "type": "string"
        },
        {
          "internalType": "string",
          "name": "title",
          "type": "string"
        },
        {
          "internalType": "string",
          "name": "desc",
          "type": "string"
        },
        {
          "internalType": "uint256",
          "name": "releaseTime",
          "type": "uint256"
        },
        {
          "internalType": "uint256",
          "name": "target",
          "type": "uint256"
        },
        {
          "internalType": "uint256",
          "name": "amount",
          "type": "uint256"
        },
        {
          "internalType": "bool",
          "name": "isCampaignEnded",
          "type": "bool"
        },
        {
          "internalType": "address",
          "name": "creator",
          "type": "address"
        }
      ],
      "stateMutability": "view",
      "type": "function",
      "constant": true
    },
    {
      "inputs": [
        {
          "internalType": "uint256",
          "name": "",
          "type": "uint256"
        }
      ],
      "name": "donators",
      "outputs": [
        {
          "internalType": "address",
          "name": "walletAddress",
          "type": "address"
        },
        {
          "internalType": "address",
          "name": "donator",
          "type": "address"
        },
        {
          "internalType": "uint256",
          "name": "amount",
          "type": "uint256"
        }
      ],
      "stateMutability": "view",
      "type": "function",
      "constant": true
    },
    {
      "inputs": [
        {
          "internalType": "string",
          "name": "id",
          "type": "string"
        },
        {
          "internalType": "address payable",
          "name": "walletAddress",
          "type": "address"
        },
        {
          "internalType": "string",
          "name": "charityName",
          "type": "string"
        },
        {
          "internalType": "string",
          "name": "title",
          "type": "string"
        },
        {
          "internalType": "string",
          "name": "desc",
          "type": "string"
        },
        {
          "internalType": "uint256",
          "name": "releaseTime",
          "type": "uint256"
        },
        {
          "internalType": "uint256",
          "name": "target",
          "type": "uint256"
        },
        {
          "internalType": "uint256",
          "name": "amount",
          "type": "uint256"
        },
        {
          "internalType": "address",
          "name": "creator",
          "type": "address"
        }
      ],
      "name": "addCampaign",
      "outputs": [],
      "stateMutability": "nonpayable",
      "type": "function"
    },
    {
      "inputs": [],
      "name": "getAllCampaigns",
      "outputs": [
        {
          "components": [
            {
              "internalType": "string",
              "name": "id",
              "type": "string"
            },
            {
              "internalType": "address payable",
              "name": "walletAddress",
              "type": "address"
            },
            {
              "internalType": "string",
              "name": "charityName",
              "type": "string"
            },
            {
              "internalType": "string",
              "name": "title",
              "type": "string"
            },
            {
              "internalType": "string",
              "name": "desc",
              "type": "string"
            },
            {
              "internalType": "uint256",
              "name": "releaseTime",
              "type": "uint256"
            },
            {
              "internalType": "uint256",
              "name": "target",
              "type": "uint256"
            },
            {
              "internalType": "uint256",
              "name": "amount",
              "type": "uint256"
            },
            {
              "internalType": "bool",
              "name": "isCampaignEnded",
              "type": "bool"
            },
            {
              "internalType": "address",
              "name": "creator",
              "type": "address"
            }
          ],
          "internalType": "struct CryptoKids.Campaign[]",
          "name": "",
          "type": "tuple[]"
        }
      ],
      "stateMutability": "view",
      "type": "function",
      "constant": true
    },
    {
      "inputs": [
        {
          "internalType": "string",
          "name": "id",
          "type": "string"
        }
      ],
      "name": "getCampaign",
      "outputs": [
        {
          "components": [
            {
              "internalType": "string",
              "name": "id",
              "type": "string"
            },
            {
              "internalType": "address payable",
              "name": "walletAddress",
              "type": "address"
            },
            {
              "internalType": "string",
              "name": "charityName",
              "type": "string"
            },
            {
              "internalType": "string",
              "name": "title",
              "type": "string"
            },
            {
              "internalType": "string",
              "name": "desc",
              "type": "string"
            },
            {
              "internalType": "uint256",
              "name": "releaseTime",
              "type": "uint256"
            },
            {
              "internalType": "uint256",
              "name": "target",
              "type": "uint256"
            },
            {
              "internalType": "uint256",
              "name": "amount",
              "type": "uint256"
            },
            {
              "internalType": "bool",
              "name": "isCampaignEnded",
              "type": "bool"
            },
            {
              "internalType": "address",
              "name": "creator",
              "type": "address"
            }
          ],
          "internalType": "struct CryptoKids.Campaign[]",
          "name": "",
          "type": "tuple[]"
        }
      ],
      "stateMutability": "view",
      "type": "function",
      "constant": true
    },
    {
      "inputs": [],
      "name": "balanceOf",
      "outputs": [
        {
          "internalType": "uint256",
          "name": "",
          "type": "uint256"
        }
      ],
      "stateMutability": "view",
      "type": "function",
      "constant": true
    },
    {
      "inputs": [
        {
          "internalType": "address",
          "name": "walletAddress",
          "type": "address"
        }
      ],
      "name": "getDonators",
      "outputs": [
        {
          "components": [
            {
              "internalType": "address",
              "name": "walletAddress",
              "type": "address"
            },
            {
              "internalType": "address",
              "name": "donator",
              "type": "address"
            },
            {
              "internalType": "uint256",
              "name": "amount",
              "type": "uint256"
            }
          ],
          "internalType": "struct CryptoKids.Donator[]",
          "name": "",
          "type": "tuple[]"
        }
      ],
      "stateMutability": "view",
      "type": "function",
      "constant": true
    },
    {
      "inputs": [
        {
          "internalType": "address",
          "name": "walletAddress",
          "type": "address"
        },
        {
          "internalType": "uint256",
          "name": "amount",
          "type": "uint256"
        }
      ],
      "name": "addToKidsBalance",
      "outputs": [],
      "stateMutability": "nonpayable",
      "type": "function"
    },
    {
      "inputs": [
        {
          "internalType": "address",
          "name": "walletAddress",
          "type": "address"
        }
      ],
      "name": "availableToWithdraw",
      "outputs": [
        {
          "internalType": "bool",
          "name": "",
          "type": "bool"
        }
      ],
      "stateMutability": "nonpayable",
      "type": "function"
    }
  ],
  "bytecode": "0x608060405234801561001057600080fd5b5061253b806100206000396000f3fe608060405234801561001057600080fd5b50600436106100935760003560e01c80637436acdd116100665780637436acdd1461013b57806386cdf60414610157578063a25db8ce14610175578063a6841d04146101a5578063ac62f566146101d557610093565b8063141961bc1461009857806352bf36ec146100d15780635b1e430714610101578063722713f71461011d575b600080fd5b6100b260048036038101906100ad91906116a9565b610207565b6040516100c89a999897969594939291906117f2565b60405180910390f35b6100eb60048036038101906100e691906119df565b6104d8565b6040516100f89190611c5f565b60405180910390f35b61011b60048036038101906101169190611cad565b610952565b005b610125610a2f565b6040516101329190611ced565b60405180910390f35b61015560048036038101906101509190611d34565b610a37565b005b61015f610c0a565b60405161016c9190611c5f565b60405180910390f35b61018f600480360381019061018a9190611e6e565b6110cd565b60405161019c9190611e9b565b60405180910390f35b6101bf60048036038101906101ba9190611e6e565b6111c2565b6040516101cc9190611fa7565b60405180910390f35b6101ef60048036038101906101ea91906116a9565b611462565b6040516101fe93929190611fc9565b60405180910390f35b6000818154811061021757600080fd5b906000526020600020906009020160009150905080600001805461023a9061202f565b80601f01602080910402602001604051908101604052809291908181526020018280546102669061202f565b80156102b35780601f10610288576101008083540402835291602001916102b3565b820191906000526020600020905b81548152906001019060200180831161029657829003601f168201915b5050505050908060010160009054906101000a900473ffffffffffffffffffffffffffffffffffffffff16908060020180546102ee9061202f565b80601f016020809104026020016040519081016040528092919081815260200182805461031a9061202f565b80156103675780601f1061033c57610100808354040283529160200191610367565b820191906000526020600020905b81548152906001019060200180831161034a57829003601f168201915b50505050509080600301805461037c9061202f565b80601f01602080910402602001604051908101604052809291908181526020018280546103a89061202f565b80156103f55780601f106103ca576101008083540402835291602001916103f5565b820191906000526020600020905b8154815290600101906020018083116103d857829003601f168201915b50505050509080600401805461040a9061202f565b80601f01602080910402602001604051908101604052809291908181526020018280546104369061202f565b80156104835780601f1061045857610100808354040283529160200191610483565b820191906000526020600020905b81548152906001019060200180831161046657829003601f168201915b5050505050908060050154908060060154908060070154908060080160009054906101000a900460ff16908060080160019054906101000a900473ffffffffffffffffffffffffffffffffffffffff1690508a565b60606000600167ffffffffffffffff8111156104f7576104f66118b4565b5b60405190808252806020026020018201604052801561053057816020015b61051d611591565b8152602001906001900390816105155790505b50905060005b6000805490508110156109485783604051602001610554919061209c565b604051602081830303815290604052805190602001206000828154811061057e5761057d6120b3565b5b906000526020600020906009020160000160405160200161059f919061217a565b604051602081830303815290604052805190602001200361093557600081815481106105ce576105cd6120b3565b5b9060005260206000209060090201604051806101400160405290816000820180546105f89061202f565b80601f01602080910402602001604051908101604052809291908181526020018280546106249061202f565b80156106715780601f1061064657610100808354040283529160200191610671565b820191906000526020600020905b81548152906001019060200180831161065457829003601f168201915b505050505081526020016001820160009054906101000a900473ffffffffffffffffffffffffffffffffffffffff1673ffffffffffffffffffffffffffffffffffffffff1673ffffffffffffffffffffffffffffffffffffffff1681526020016002820180546106e09061202f565b80601f016020809104026020016040519081016040528092919081815260200182805461070c9061202f565b80156107595780601f1061072e57610100808354040283529160200191610759565b820191906000526020600020905b81548152906001019060200180831161073c57829003601f168201915b505050505081526020016003820180546107729061202f565b80601f016020809104026020016040519081016040528092919081815260200182805461079e9061202f565b80156107eb5780601f106107c0576101008083540402835291602001916107eb565b820191906000526020600020905b8154815290600101906020018083116107ce57829003601f168201915b505050505081526020016004820180546108049061202f565b80601f01602080910402602001604051908101604052809291908181526020018280546108309061202f565b801561087d5780601f106108525761010080835404028352916020019161087d565b820191906000526020600020905b81548152906001019060200180831161086057829003601f168201915b505050505081526020016005820154815260200160068201548152602001600782015481526020016008820160009054906101000a900460ff161515151581526020016008820160019054906101000a900473ffffffffffffffffffffffffffffffffffffffff1673ffffffffffffffffffffffffffffffffffffffff1673ffffffffffffffffffffffffffffffffffffffff168152505082600081518110610929576109286120b3565b5b60200260200101819052505b8080610940906121c0565b915050610536565b5080915050919050565b60005b600080549050811015610a2a578273ffffffffffffffffffffffffffffffffffffffff166000828154811061098d5761098c6120b3565b5b906000526020600020906009020160010160009054906101000a900473ffffffffffffffffffffffffffffffffffffffff1673ffffffffffffffffffffffffffffffffffffffff1603610a175781600082815481106109ef576109ee6120b3565b5b90600052602060002090600902016007016000828254610a0f9190612208565b925050819055505b8080610a22906121c0565b915050610955565b505050565b600047905090565b60006040518061014001604052808b81526020018a73ffffffffffffffffffffffffffffffffffffffff1681526020018981526020018881526020018781526020018681526020018581526020018481526020016000151581526020018373ffffffffffffffffffffffffffffffffffffffff1681525090806001815401808255809150506001900390600052602060002090600902016000909190919091506000820151816000019081610aec91906123d3565b5060208201518160010160006101000a81548173ffffffffffffffffffffffffffffffffffffffff021916908373ffffffffffffffffffffffffffffffffffffffff1602179055506040820151816002019081610b4991906123d3565b506060820151816003019081610b5f91906123d3565b506080820151816004019081610b7591906123d3565b5060a0820151816005015560c0820151816006015560e082015181600701556101008201518160080160006101000a81548160ff0219169083151502179055506101208201518160080160016101000a81548173ffffffffffffffffffffffffffffffffffffffff021916908373ffffffffffffffffffffffffffffffffffffffff1602179055505050505050505050505050565b60606000808054905067ffffffffffffffff811115610c2c57610c2b6118b4565b5b604051908082528060200260200182016040528015610c6557816020015b610c52611591565b815260200190600190039081610c4a5790505b5090506000805b6000805490508110156110135760008181548110610c8d57610c8c6120b3565b5b906000526020600020906009020160405180610140016040529081600082018054610cb79061202f565b80601f0160208091040260200160405190810160405280929190818152602001828054610ce39061202f565b8015610d305780601f10610d0557610100808354040283529160200191610d30565b820191906000526020600020905b815481529060010190602001808311610d1357829003601f168201915b505050505081526020016001820160009054906101000a900473ffffffffffffffffffffffffffffffffffffffff1673ffffffffffffffffffffffffffffffffffffffff1673ffffffffffffffffffffffffffffffffffffffff168152602001600282018054610d9f9061202f565b80601f0160208091040260200160405190810160405280929190818152602001828054610dcb9061202f565b8015610e185780601f10610ded57610100808354040283529160200191610e18565b820191906000526020600020905b815481529060010190602001808311610dfb57829003601f168201915b50505050508152602001600382018054610e319061202f565b80601f0160208091040260200160405190810160405280929190818152602001828054610e5d9061202f565b8015610eaa5780601f10610e7f57610100808354040283529160200191610eaa565b820191906000526020600020905b815481529060010190602001808311610e8d57829003601f168201915b50505050508152602001600482018054610ec39061202f565b80601f0160208091040260200160405190810160405280929190818152602001828054610eef9061202f565b8015610f3c5780601f10610f1157610100808354040283529160200191610f3c565b820191906000526020600020905b815481529060010190602001808311610f1f57829003601f168201915b505050505081526020016005820154815260200160068201548152602001600782015481526020016008820160009054906101000a900460ff161515151581526020016008820160019054906101000a900473ffffffffffffffffffffffffffffffffffffffff1673ffffffffffffffffffffffffffffffffffffffff1673ffffffffffffffffffffffffffffffffffffffff1681525050838381518110610fe757610fe66120b3565b5b60200260200101819052508180610ffd906121c0565b925050808061100b906121c0565b915050610c6c565b5060008167ffffffffffffffff8111156110305761102f6118b4565b5b60405190808252806020026020018201604052801561106957816020015b611056611591565b81526020019060019003908161104e5790505b50905060005b828110156110c35783818151811061108a576110896120b3565b5b60200260200101518282815181106110a5576110a46120b3565b5b602002602001018190525080806110bb906121c0565b91505061106f565b5080935050505090565b6000806110d9836114dc565b9050600081815481106110ef576110ee6120b3565b5b90600052602060002090600902016005015442118061116a57506000818154811061111d5761111c6120b3565b5b906000526020600020906009020160060154670de0b6b3a76400006000838154811061114c5761114b6120b3565b5b90600052602060002090600902016007015461116891906124d4565b145b156111b757600160008281548110611185576111846120b3565b5b906000526020600020906009020160080160006101000a81548160ff02191690831515021790555060019150506111bd565b60009150505b919050565b6060600060018054905067ffffffffffffffff8111156111e5576111e46118b4565b5b60405190808252806020026020018201604052801561121e57816020015b61120b611612565b8152602001906001900390816112035790505b5090506000805b6001805490508110156113545760018181548110611246576112456120b3565b5b90600052602060002090600302016040518060600160405290816000820160009054906101000a900473ffffffffffffffffffffffffffffffffffffffff1673ffffffffffffffffffffffffffffffffffffffff1673ffffffffffffffffffffffffffffffffffffffff1681526020016001820160009054906101000a900473ffffffffffffffffffffffffffffffffffffffff1673ffffffffffffffffffffffffffffffffffffffff1673ffffffffffffffffffffffffffffffffffffffff168152602001600282015481525050838381518110611328576113276120b3565b5b6020026020010181905250818061133e906121c0565b925050808061134c906121c0565b915050611225565b5060008167ffffffffffffffff811115611371576113706118b4565b5b6040519080825280602002602001820160405280156113aa57816020015b611397611612565b81526020019060019003908161138f5790505b50905060005b82811015611456578573ffffffffffffffffffffffffffffffffffffffff168482815181106113e2576113e16120b3565b5b60200260200101516000015173ffffffffffffffffffffffffffffffffffffffff16036114435783818151811061141c5761141b6120b3565b5b6020026020010151828281518110611437576114366120b3565b5b60200260200101819052505b808061144e906121c0565b9150506113b0565b50809350505050919050565b6001818154811061147257600080fd5b90600052602060002090600302016000915090508060000160009054906101000a900473ffffffffffffffffffffffffffffffffffffffff16908060010160009054906101000a900473ffffffffffffffffffffffffffffffffffffffff16908060020154905083565b600080600090505b600080549050811015611585578273ffffffffffffffffffffffffffffffffffffffff166000828154811061151c5761151b6120b3565b5b906000526020600020906009020160010160009054906101000a900473ffffffffffffffffffffffffffffffffffffffff1673ffffffffffffffffffffffffffffffffffffffff1603611572578091505061158c565b808061157d906121c0565b9150506114e4565b506103e790505b919050565b60405180610140016040528060608152602001600073ffffffffffffffffffffffffffffffffffffffff168152602001606081526020016060815260200160608152602001600081526020016000815260200160008152602001600015158152602001600073ffffffffffffffffffffffffffffffffffffffff1681525090565b6040518060600160405280600073ffffffffffffffffffffffffffffffffffffffff168152602001600073ffffffffffffffffffffffffffffffffffffffff168152602001600081525090565b6000604051905090565b600080fd5b600080fd5b6000819050919050565b61168681611673565b811461169157600080fd5b50565b6000813590506116a38161167d565b92915050565b6000602082840312156116bf576116be611669565b5b60006116cd84828501611694565b91505092915050565b600081519050919050565b600082825260208201905092915050565b60005b838110156117105780820151818401526020810190506116f5565b60008484015250505050565b6000601f19601f8301169050919050565b6000611738826116d6565b61174281856116e1565b93506117528185602086016116f2565b61175b8161171c565b840191505092915050565b600073ffffffffffffffffffffffffffffffffffffffff82169050919050565b600061179182611766565b9050919050565b6117a181611786565b82525050565b6117b081611673565b82525050565b60008115159050919050565b6117cb816117b6565b82525050565b60006117dc82611766565b9050919050565b6117ec816117d1565b82525050565b600061014082019050818103600083015261180d818d61172d565b905061181c602083018c611798565b818103604083015261182e818b61172d565b90508181036060830152611842818a61172d565b90508181036080830152611856818961172d565b905061186560a08301886117a7565b61187260c08301876117a7565b61187f60e08301866117a7565b61188d6101008301856117c2565b61189b6101208301846117e3565b9b9a5050505050505050505050565b600080fd5b600080fd5b7f4e487b7100000000000000000000000000000000000000000000000000000000600052604160045260246000fd5b6118ec8261171c565b810181811067ffffffffffffffff8211171561190b5761190a6118b4565b5b80604052505050565b600061191e61165f565b905061192a82826118e3565b919050565b600067ffffffffffffffff82111561194a576119496118b4565b5b6119538261171c565b9050602081019050919050565b82818337600083830152505050565b600061198261197d8461192f565b611914565b90508281526020810184848401111561199e5761199d6118af565b5b6119a9848285611960565b509392505050565b600082601f8301126119c6576119c56118aa565b5b81356119d684826020860161196f565b91505092915050565b6000602082840312156119f5576119f4611669565b5b600082013567ffffffffffffffff811115611a1357611a1261166e565b5b611a1f848285016119b1565b91505092915050565b600081519050919050565b600082825260208201905092915050565b6000819050602082019050919050565b600082825260208201905092915050565b6000611a70826116d6565b611a7a8185611a54565b9350611a8a8185602086016116f2565b611a938161171c565b840191505092915050565b611aa781611786565b82525050565b611ab681611673565b82525050565b611ac5816117b6565b82525050565b611ad4816117d1565b82525050565b6000610140830160008301518482036000860152611af88282611a65565b9150506020830151611b0d6020860182611a9e565b5060408301518482036040860152611b258282611a65565b91505060608301518482036060860152611b3f8282611a65565b91505060808301518482036080860152611b598282611a65565b91505060a0830151611b6e60a0860182611aad565b5060c0830151611b8160c0860182611aad565b5060e0830151611b9460e0860182611aad565b50610100830151611ba9610100860182611abc565b50610120830151611bbe610120860182611acb565b508091505092915050565b6000611bd58383611ada565b905092915050565b6000602082019050919050565b6000611bf582611a28565b611bff8185611a33565b935083602082028501611c1185611a44565b8060005b85811015611c4d5784840389528151611c2e8582611bc9565b9450611c3983611bdd565b925060208a01995050600181019050611c15565b50829750879550505050505092915050565b60006020820190508181036000830152611c798184611bea565b905092915050565b611c8a816117d1565b8114611c9557600080fd5b50565b600081359050611ca781611c81565b92915050565b60008060408385031215611cc457611cc3611669565b5b6000611cd285828601611c98565b9250506020611ce385828601611694565b9150509250929050565b6000602082019050611d0260008301846117a7565b92915050565b611d1181611786565b8114611d1c57600080fd5b50565b600081359050611d2e81611d08565b92915050565b60008060008060008060008060006101208a8c031215611d5757611d56611669565b5b60008a013567ffffffffffffffff811115611d7557611d7461166e565b5b611d818c828d016119b1565b9950506020611d928c828d01611d1f565b98505060408a013567ffffffffffffffff811115611db357611db261166e565b5b611dbf8c828d016119b1565b97505060608a013567ffffffffffffffff811115611de057611ddf61166e565b5b611dec8c828d016119b1565b96505060808a013567ffffffffffffffff811115611e0d57611e0c61166e565b5b611e198c828d016119b1565b95505060a0611e2a8c828d01611694565b94505060c0611e3b8c828d01611694565b93505060e0611e4c8c828d01611694565b925050610100611e5e8c828d01611c98565b9150509295985092959850929598565b600060208284031215611e8457611e83611669565b5b6000611e9284828501611c98565b91505092915050565b6000602082019050611eb060008301846117c2565b92915050565b600081519050919050565b600082825260208201905092915050565b6000819050602082019050919050565b606082016000820151611ef86000850182611acb565b506020820151611f0b6020850182611acb565b506040820151611f1e6040850182611aad565b50505050565b6000611f308383611ee2565b60608301905092915050565b6000602082019050919050565b6000611f5482611eb6565b611f5e8185611ec1565b9350611f6983611ed2565b8060005b83811015611f9a578151611f818882611f24565b9750611f8c83611f3c565b925050600181019050611f6d565b5085935050505092915050565b60006020820190508181036000830152611fc18184611f49565b905092915050565b6000606082019050611fde60008301866117e3565b611feb60208301856117e3565b611ff860408301846117a7565b949350505050565b7f4e487b7100000000000000000000000000000000000000000000000000000000600052602260045260246000fd5b6000600282049050600182168061204757607f821691505b60208210810361205a57612059612000565b5b50919050565b600081905092915050565b6000612076826116d6565b6120808185612060565b93506120908185602086016116f2565b80840191505092915050565b60006120a8828461206b565b915081905092915050565b7f4e487b7100000000000000000000000000000000000000000000000000000000600052603260045260246000fd5b60008190508160005260206000209050919050565b600081546121048161202f565b61210e8186612060565b94506001821660008114612129576001811461213e57612171565b60ff1983168652811515820286019350612171565b612147856120e2565b60005b838110156121695781548189015260018201915060208101905061214a565b838801955050505b50505092915050565b600061218682846120f7565b915081905092915050565b7f4e487b7100000000000000000000000000000000000000000000000000000000600052601160045260246000fd5b60006121cb82611673565b91507fffffffffffffffffffffffffffffffffffffffffffffffffffffffffffffffff82036121fd576121fc612191565b5b600182019050919050565b600061221382611673565b915061221e83611673565b925082820190508082111561223657612235612191565b5b92915050565b60006020601f8301049050919050565b600082821b905092915050565b6000600883026122897fffffffffffffffffffffffffffffffffffffffffffffffffffffffffffffffff8261224c565b612293868361224c565b95508019841693508086168417925050509392505050565b6000819050919050565b60006122d06122cb6122c684611673565b6122ab565b611673565b9050919050565b6000819050919050565b6122ea836122b5565b6122fe6122f6826122d7565b848454612259565b825550505050565b600090565b612313612306565b61231e8184846122e1565b505050565b5b818110156123425761233760008261230b565b600181019050612324565b5050565b601f82111561238757612358816120e2565b6123618461223c565b81016020851015612370578190505b61238461237c8561223c565b830182612323565b50505b505050565b600082821c905092915050565b60006123aa6000198460080261238c565b1980831691505092915050565b60006123c38383612399565b9150826002028217905092915050565b6123dc826116d6565b67ffffffffffffffff8111156123f5576123f46118b4565b5b6123ff825461202f565b61240a828285612346565b600060209050601f83116001811461243d576000841561242b578287015190505b61243585826123b7565b86555061249d565b601f19841661244b866120e2565b60005b828110156124735784890151825560018201915060208501945060208101905061244e565b86831015612490578489015161248c601f891682612399565b8355505b6001600288020188555050505b505050505050565b7f4e487b7100000000000000000000000000000000000000000000000000000000600052601260045260246000fd5b60006124df82611673565b91506124ea83611673565b9250826124fa576124f96124a5565b5b82820490509291505056fea264697066735822122071944d0557a5318e472c0e03f9510eeaea3140e3788da07050afcdc59d519d2a64736f6c63430008120033",
  "immutableReferences": {},
  "source": "    // SPDX-License-Identifier: GPL-3.0\r\n\r\n    pragma solidity >=0.7.0 <0.9.0;\r\n\r\n    contract CryptoKids {\r\n    \r\n    \r\n\r\n        event LogCampaignFundingReceived(address addr, uint amount, uint contractBalance);\r\n\r\n    \r\n        struct Campaign {\r\n            string id;\r\n            address payable walletAddress;\r\n            string charityName;\r\n            string title;\r\n            string desc;\r\n            uint releaseTime;\r\n            uint target;\r\n            uint amount;\r\n            bool isCampaignEnded;\r\n            address creator;\r\n        }\r\n\r\n        Campaign[] public campaigns;\r\n\r\n        struct Donator {\r\n            address walletAddress;\r\n            address donator;\r\n            uint amount;\r\n        }\r\n\r\n        Donator[] public donators;\r\n\r\n        address payable depositAccount;\r\n\r\n        function addCampaign(string memory id,address payable walletAddress, string memory charityName,string memory title, string memory desc, uint releaseTime, uint target,uint amount,address creator) public {\r\n\r\n            campaigns.push(Campaign(\r\nid,\r\n                walletAddress,\r\n                charityName,\r\n                title,\r\n                desc,\r\n                releaseTime,\r\n                target,\r\n                amount,\r\n                false,\r\n                creator\r\n            ));\r\n\r\n        }\r\n\r\n\r\n    function getAllCampaigns() public view returns (Campaign[] memory){\r\n        Campaign[] memory temp = new Campaign[](campaigns.length);\r\n        uint counter = 0;\r\n\r\n        for (uint i = 0; i < campaigns.length; i++) {\r\n            temp[counter] = campaigns[i];\r\n            counter++;\r\n        }\r\n        \r\n        Campaign[] memory result = new Campaign[] (counter);\r\n        for (uint i = 0; i < counter; i++) {\r\n            result[i] = temp[i];\r\n        }\r\n        return result;\r\n    }\r\n\r\n    function getCampaign(string memory id) public view returns (Campaign[] memory){\r\n\r\n        \r\n        Campaign[] memory result = new Campaign[] (1);\r\n        for (uint i = 0; i < campaigns.length; i++) {\r\n            if (keccak256(abi.encodePacked(campaigns[i].id))==  keccak256(abi.encodePacked(id))){\r\n                result[0] = campaigns[i];\r\n            }\r\n        }\r\n\r\n        return result;\r\n    }\r\n\r\n        function balanceOf() public view returns(uint) {\r\n            return address(this).balance;\r\n        }\r\n\r\n\r\n        function getDonators(address walletAddress) public view returns(Donator[] memory) {\r\n            //retrive single campaign donators\r\n            Donator[] memory temp = new Donator[](donators.length);\r\n        uint counter = 0;\r\n\r\n        for (uint i = 0; i < donators.length; i++) {\r\n            temp[counter] = donators[i];\r\n            counter++;\r\n        }\r\n        \r\n        Donator[] memory result = new Donator[] (counter);\r\n        for (uint i = 0; i < counter; i++) {\r\n            if (temp[i].walletAddress == walletAddress){\r\n                result[i] = temp[i];\r\n            }\r\n        }\r\n        return result;\r\n        }\r\n\r\n        function addToKidsBalance(address walletAddress,uint amount) public  {\r\n            for(uint i = 0; i < campaigns.length; i++) {\r\n                if(campaigns[i].walletAddress == walletAddress) {\r\n                    campaigns[i].amount += amount;\r\n                   \r\n                }\r\n            }\r\n        }\r\n\r\n        function getIndex(address walletAddress) view private returns(uint) {\r\n            for(uint i = 0; i < campaigns.length; i++) {\r\n                if (campaigns[i].walletAddress == walletAddress) {\r\n                    return i;\r\n                }\r\n            }\r\n            return 999;\r\n        }\r\n\r\n        function availableToWithdraw(address walletAddress) public returns(bool) {\r\n            uint i = getIndex(walletAddress);\r\n            \r\n            if (block.timestamp > campaigns[i].releaseTime || campaigns[i].amount / 1 ether == campaigns[i].target) {\r\n                campaigns[i].isCampaignEnded=true;\r\n                return true;\r\n            } else {\r\n                return false;\r\n            }\r\n        }\r\n\r\n      \r\n    }\r\n\r\n",
  "sourcePath": "G:\\Web Development\\REACT\\crowd-truffle\\blockchain\\contracts\\CryptoKids.sol",
  "compiler": {
    "name": "solc",
    "version": "0.8.18+commit.87f61d96.Emscripten.clang"
  },
  "schemaVersion": "3.4.12",
  "updatedAt": "2023-04-14T18:19:05.456Z",
  "networkType": "ethereum",
  "devdoc": {
    "kind": "dev",
    "methods": {},
    "version": 1
  },
  "userdoc": {
    "kind": "user",
    "methods": {},
    "version": 1
  }
}